:020000040800F2
:10000000C49A012009A30008DD4F0408DDA20008FE
:10001000DDA20008DDA20008DDA20008000000004B
:1000200000000000000000000000000021A4000803
:10003000DDA2000800000000C9A3000891A3010888
:100040000DA600080DA600080DA600080DA60008C4
:100050000DA600080DA600080DA600080DA60008B4
:100060000DA600080DA600080DA600080DA60008A4
:100070000DA600080DA600080DA600080DA6000894
:100080000DA600080DA600080DA600080DA6000884
:100090000DA600080DA600080DA600080DA6000874
:1000A0000DA600080DA600080DA600080DA6000864
:1000B0000DA600080DA600080DA600080DA6000854
:1000C0000DA600080DA600080DA600080DA6000844
:1000D0000DA600080DA600080DA600080DA6000834
:1000E0000DA600080DA600080DA600080DA6000824
:1000F0000DA600080DA600080DA600080DA6000814
:100100000DA600080DA600080DA600080DA6000803
:100110000DA600080DA600080DA600080DA60008F3
:100120000DA600080DA600080DA600080DA60008E3
:100130000DA600080DA600080DA600080DA60008D3
:100140000DA600080DA600080DA600080DA60008C3
:100150000DA600080DA600080DA600080DA60008B3
:100160000DA600080DA600080DA600080DA60008A3
:100170000DA600080DA600080DA600080DA6000893
:100180000DA600080DA600080DA600080DA6000883
:100190000DA600080DA600080DA600080DA6000873
:0C01A0000DA600080DA600080DA6000822
:1001AC00FFFFFFFFFFFFFFFFFFFFFFFFFFFFFFFF53
:0401BC00FFFFFFFF43
:1001C00090F800F06DE9024520F007016FF0000C97
:1001D00010F0070491F820F040F049804FF000043F
:1001E0006FF00700D1E9002391F840F000F108001A
:1001F00082FA4CF2A4FA8CF283FA4CF3A2FA8CF352
:100200004BBBD1E9022382FA4CF200F10800A4FAB8
:100210008CF283FA4CF3A2FA8CF3E3B9D1E904230C
:1002200082FA4CF200F10800A4FA8CF283FA4CF343
:10023000A2FA8CF37BB9D1E9062301F1200182FAFD
:100240004CF200F10800A4FA8CF283FA4CF3A2FA03
:100250008CF3002BC6D0002A04BF04301A4612BA11
:10026000B2FA82F2FDE8024500EBD2007047D1E914
:10027000002304F00305C4F100004FEAC50514F0A3
:10028000040F91F840F00CFA05F562EA05021CBF74
:1002900063EA050362464FF00004A9E7000000008E
:1002A000A2EB0300704700BF02780B78012A28BF39
:1002B0009A42F5D16DE9044540EA0104CDE90267AF
:1002C0006FF0000C4FEA447212B380EA010414F09C
:1002D000070F6AD100F0070420F0070004F00305BF
:1002E00021F007014FEAC505F0E8042314F0040FDC
:1002F000F1E804670CFA05F462EA040266EA04060F
:100300000AD063EA0403624667EA0407664603E02C
:10031000F0E80423F1E8046782FA4CF582EA060467
:10032000A4FA8CF46CBB83FA4CF583EA0705A5FAB2
:100330008CF595B950E9022351E9026782FA4CF530
:1003400082EA0604A4FA8CF483FA4CF583EA0705E2
:10035000A5FA8CF52543DBD09CB92DBAB5FA85F406
:1003600024F0070427FA04F1DDE9026723FA04F315
:1003700003F0FF0001F0FF01FDE80445A0EB0100E0
:10038000704724BAB4FA84F424F0070426FA04F17E
:10039000DDE9026722FA04F202F0FF0001F0FF013A
:1003A000FDE80445A0EB0100704714F0030F3CD1B9
:1003B00010F0030428D150F8082B51F8083B82FABA
:1003C0004CF582EA0305A5FA8CF55DB950F8042CCA
:1003D00051F8043C82FA4CF582EA0305A5FA8CF543
:1003E000002DE8D02DBAB5FA85F424F0070423FADD
:1003F00004F122FA04F202F0FF0001F0FF01FDE82F
:100400000445A0EB010070474FEAC40420F003004C
:1004100050F8082B21F0030151F8083B0CFA04F4C2
:1004200062EA040263EA0403C9E710F003041AD085
:10043000A1EB040120F00300E40750F8042B06D0E0
:100440000FD28B785FFAA2F4E41A06D12BB1CB78E5
:100450005FFAB2F4E41A00D11BB920465DF8104BE4
:10046000704701F1040150F8042BCC0721F003017F
:1004700051F8043B48D824D222F07F4482FA4CF54C
:1004800094EA1325A5FA8CF50AD165B951F8043B15
:1004900084EA0204B4EB036F0ED150F8042BEBE7AF
:1004A0004FEA132355E035F07F454DD10878FDE83C
:1004B0000445C0F1000070474FEA126203F0FF03E9
:1004C00047E002EA1C4482FA4CF594EA1345A5FA87
:1004D0008CF50AD165B951F8043B84EA0204B4EB07
:1004E000034F0CD150F8042BEBE74FEA134330E0F5
:1004F00015EA1C4528D10B884FEA124229E04FEA41
:10050000124203EA1C4324E002F0FF0482FA4CF595
:1005100094EA1365A5FA8CF50AD165B951F8043B44
:1005200084EA0204B4EB032F09D150F8042BEBE763
:100530004FEA13630DE015F0FF0F05D10B684FEA8A
:10054000122223F07F4304E04FF00000FDE8044551
:10055000704712BA1BBA82FA4CF482EA0304A4FA76
:100560008CF5B5FA85F402FA04F203FA04F34FEAC3
:100570001260FDE80445A0EB136070470000000026
:1005800001F0FF01102A2BDB10F0070F08D010F844
:10059000013B013A8B422DD010F0070F42B3F6D148
:1005A000F0B441EA012141EA014122F007047FF061
:1005B00000070023F0E80256083C85EA010586EAB8
:1005C000010685FA47F5A3FA87F586FA47F6A5FAF4
:1005D00087F68EB9EED1F0BC01F0FF0102F0070200
:1005E00032B110F8013B013A83EA010313B1F8D1AB
:1005F0000020704701387047002D06BF354603388C
:10060000073815F0010F07D1013015F4807F02BFC4
:10061000013015F4C03F0130F0BC0138704700BF15
:1006200081F0004102E000BF83F0004330B54FEAA3
:1006300041044FEA430594EA050F08BF90EA020F10
:100640001FBF54EA000C55EA020C7FEA645C7FEAA3
:10065000655C00F0E2804FEA5454D4EB5555B8BFC6
:100660006D420CDD2C4480EA020281EA030382EA37
:10067000000083EA010180EA020281EA0303362DC9
:1006800088BF30BD11F0004F4FEA01314FF4801C9C
:100690004CEA113102D0404261EB410113F0004FAE
:1006A0004FEA03334CEA133302D0524263EB430365
:1006B00094EA050F00F0A780A4F10104D5F1200E03
:1006C0000DDB02FA0EFC22FA05F2801841F100015E
:1006D00003FA0EF2801843FA05F359410EE0A5F132
:1006E00020050EF1200E012A03FA0EFC28BF4CF063
:1006F000020C43FA05F3C01851EBE37101F0004519
:1007000007D54FF0000EDCF1000C7EEB00006EEB25
:100710000101B1F5801F1BD3B1F5001F0CD34908AF
:100720005FEA30004FEA3C0C04F101044FEA445206
:1007300012F5800F80F09A80BCF1004F08BF5FEA8D
:10074000500C50F1000041EB045141EA050130BD6D
:100750005FEA4C0C404141EB0101013C28BFB1F57F
:10076000801FE9D291F0000F04BF01460020B1FACA
:1007700081F308BF2033A3F10B03B3F120020CDA9D
:100780000C3208DD02F1140CC2F10C0201FA0CF07B
:1007900021FA02F10CE002F11402D8BFC2F1200CE0
:1007A00001FA02F120FA0CFCDCBF41EA0C01904096
:1007B000E41AA2BF01EB0451294330BD6FEA0404DF
:1007C0001F3C1CDA0C340EDC04F11404C4F12002CA
:1007D00020FA04F001FA02F340EA030021FA04F3DC
:1007E00045EA030130BDC4F10C04C4F1200220FA33
:1007F00002F001FA04F340EA0300294630BD21FA71
:1008000004F0294630BD94F0000F83F4801306BF36
:1008100081F480110134013D4EE77FEA645C18BF2A
:100820007FEA655C29D094EA050F08BF90EA020FC1
:1008300005D054EA000C04BF1946104630BD91EAB9
:10084000030F1EBF0021002030BD5FEA545C05D1BC
:100850004000494128BF41F0004130BD14F58004FB
:100860003CBF01F5801130BD01F0004545F0FE416F
:1008700041F470014FF0000030BD7FEA645C1ABFA4
:10088000194610467FEA655C1CBF0B46024650EADB
:10089000013406BF52EA033591EA030F41F4002107
:1008A00030BD00BF90F0000F04BF0021704730B58D
:1008B0004FF4806404F132044FF000054FF0000162
:1008C00050E700BF90F0000F04BF0021704730B523
:1008D0004FF4806404F1320410F0004548BF4042F8
:1008E0004FF000013EE700BF42004FEAE2014FEA4D
:1008F00031014FEA02701FBF12F07F4393F07F4F28
:1009000081F06051704732F07F4208BF704793F02A
:100910007F4F04BF41F40021704730B54FF460743D
:1009200001F0004521F000411CE700BF50EA010240
:1009300008BF704730B54FF000050AE050EA0102E9
:1009400008BF704730B511F0004502D5404261EB59
:1009500041014FF4806404F132045FEA915C3FF49A
:10096000D8AE4FF003025FEADC0C18BF03325FEA37
:10097000DC0C18BF033202EBDC02C2F1200300FAE8
:1009800003FC20FA02F001FA03FE40EA0E0021FA0D
:1009900002F11444BDE600BF70B54FF0FF0C4CF4FB
:1009A000E06C1CEA11541DBF1CEA135594EA0C0FAD
:1009B00095EA0C0F00F0DEF82C4481EA030621EAE8
:1009C0004C5123EA4C5350EA013518BF52EA033523
:1009D00041F4801143F4801338D0A0FB02CE4FF0D5
:1009E0000005E1FB02E506F00042E0FB03E54FF005
:1009F0000006E1FB03569CF0000F18BF4EF0010EFD
:100A0000A4F1FF04B6F5007F64F5407404D25FEAF8
:100A10004E0E6D4146EB060642EAC62141EA5551AB
:100A20004FEAC52040EA5E504FEACE2EB4F1FD0CED
:100A300088BFBCF5E06F1ED8BEF1004F08BF5FEA6B
:100A4000500E50F1000041EB045170BD06F000461D
:100A500046EA010140EA020081EA0301B4EB5C04CA
:100A6000C2BFD4EB0C0541EA045170BD41F48011C2
:100A70004FF0000E013C00F3AB8014F1360FDEBFE7
:100A8000002001F0004170BDC4F10004203C35DAC3
:100A90000C341BDC04F11404C4F1200500FA05F346
:100AA00020FA04F001FA05F240EA020001F00042E7
:100AB00021F0004110EBD37021FA04F642EB06015D
:100AC0005EEA430E08BF20EAD37070BDC4F10C0487
:100AD000C4F1200500FA04F320FA05F001FA04F24B
:100AE00040EA020001F0004110EBD37041F1000137
:100AF0005EEA430E08BF20EAD37070BDC4F1200542
:100B000000FA05F24EEA020E20FA04F301FA05F2A9
:100B100043EA020321FA04F001F0004121FA04F251
:100B200020EA020000EBD3705EEA430E08BF20EA21
:100B3000D37070BD94F0000F0FD101F0004640005B
:100B400041EB010111F4801F08BF013CF7D041EADD
:100B5000060195F0000F18BF704703F000465200E1
:100B600043EB030313F4801F08BF013DF7D043EAB2
:100B70000603704794EA0C0F0CEA135518BF95EA68
:100B80000C0F0CD050EA410618BF52EA4306D1D1EF
:100B900081EA030101F000414FF0000070BD50EA0E
:100BA000410606BF1046194652EA430619D094EA98
:100BB0000C0F02D150EA013613D195EA0C0F05D182
:100BC00052EA03361CBF104619460AD181EA0301D6
:100BD00001F0004141F0FE4141F470014FF000008E
:100BE00070BD41F0FE4141F4780170BD70B54FF029
:100BF000FF0C4CF4E06C1CEA11541DBF1CEA1355A9
:100C000094EA0C0F95EA0C0F00F0A7F8A4EB05048A
:100C100081EA030E52EA03354FEA013100F0888081
:100C20004FEA03334FF0805545EA131343EA12634A
:100C30004FEA022245EA111545EA10654FEA0026FF
:100C40000EF000419D4208BF964244F1FD0404F5B8
:100C5000407402D25B084FEA3202B61A65EB030514
:100C60005B084FEA32024FF480104FF4002CB6EBD1
:100C7000020E75EB030E22BFB61A754640EA0C0051
:100C80005B084FEA3202B6EB020E75EB030E22BF91
:100C9000B61A754640EA5C005B084FEA3202B6EBD2
:100CA000020E75EB030E22BFB61A754640EA9C0091
:100CB0005B084FEA3202B6EB020E75EB030E22BF61
:100CC000B61A754640EADC0055EA060E18D04FEA1F
:100CD000051545EA16754FEA06164FEAC30343EABF
:100CE00052734FEAC2025FEA1C1CC0D111F4801F8C
:100CF0000BD141EA00014FF000004FF0004CB6E785
:100D000011F4801F04BF01430020B4F1FD0C88BF23
:100D1000BCF5E06F3FF6AFAEB5EB030C04BFB6EB2E
:100D2000020C5FEA500C50F1000041EB045170BD21
:100D30000EF0004E4EEA113114EB5C04C2BFD4EB4E
:100D40000C0541EA045170BD41F480114FF0000ED2
:100D5000013C90E645EA060E8DE60CEA135594EA4E
:100D60000C0F08BF95EA0C0F3FF43BAF94EA0C0F51
:100D70000AD150EA01347FF434AF95EA0C0F7FF4C6
:100D800025AF104619462CE795EA0C0F06D152EA1A
:100D900003353FF4FDAE1046194622E750EA4106FE
:100DA00018BF52EA43067FF4C5AE50EA41047FF40F
:100DB0000DAF52EA43057FF4EBAE12E77BB972B98F
:100DC0000029BEBF00204FF0004106E008BF002808
:100DD0001CBF6FF000414FF0FF3000F057B8ADF18D
:100DE000080C6DE904CE002909DB002B1ADB00F0AA
:100DF000AFF9DDF804E0DDE9022304B070474042BA
:100E000061EB4101002B1BDB00F0A2F9DDF804E0EF
:100E1000DDE9022304B0404261EB4101524263EB41
:100E200043037047524263EB430300F091F9DDF84E
:100E300004E0DDE9022304B0404261EB4101704768
:100E4000524263EB430300F083F9DDF804E0DDE98F
:100E5000022304B0524263EB4303704753B94AB9CB
:100E6000002908BF00281CBF4FF0FF314FF0FF30B2
:100E700000F00CB8ADF1080C6DE904CE00F068F993
:100E8000DDF804E0DDE9022304B07047704700BFDD
:100E90004FF0FF3C06E000BF4FF0010C02E000BF46
:100EA0004FF0010C4DF804CD4FEA410C7FEA6C5C29
:100EB0004FEA430C18BF7FEA6C5C1BD001B050EACC
:100EC000410C0CBF52EA430C91EA030F02BF90EAB7
:100ED000020F0020704710F1000F91EA030F58BF76
:100EE000994208BF90422CBFD8176FEAE37040F0D8
:100EF000010070474FEA410C7FEA6C5C02D150EA76
:100F0000013C07D14FEA430C7FEA6C5CD6D152EA30
:100F1000033CD3D05DF8040B704700BF84461046F5
:100F200062468C461946634600E000BF01B5FFF7F4
:100F3000B7FF002848BF10F1000F01BD4DF808EDC4
:100F4000FFF7F4FF0CBF012000205DF808FB00BF95
:100F50004DF808EDFFF7EAFF34BF012000205DF8EF
:100F600008FB00BF4DF808EDFFF7E0FF94BF01203C
:100F700000205DF808FB00BF4DF808EDFFF7CEFF3D
:100F800094BF012000205DF808FB00BF4DF808ED7C
:100F9000FFF7C4FF34BF012000205DF808FB00BF4D
:100FA000844641EA000313F003036DD1403A41D374
:100FB00051F8043B40F8043B51F8043B40F8043B33
:100FC00051F8043B40F8043B51F8043B40F8043B23
:100FD00051F8043B40F8043B51F8043B40F8043B13
:100FE00051F8043B40F8043B51F8043B40F8043B03
:100FF00051F8043B40F8043B51F8043B40F8043BF3
:1010000051F8043B40F8043B51F8043B40F8043BE2
:1010100051F8043B40F8043B51F8043B40F8043BD2
:1010200051F8043B40F8043B51F8043B40F8043BC2
:10103000403ABDD2303211D351F8043B40F8043B62
:1010400051F8043B40F8043B51F8043B40F8043BA2
:1010500051F8043B40F8043B103AEDD20C3205D372
:1010600051F8043B40F8043B043AF9D2043208D06A
:10107000D2071CBF11F8013B00F8013B01D30B88DC
:1010800003806046704700BF082A13D38B078DD0BA
:1010900010F003038AD0C3F10403D21ADB071CBF8C
:1010A00011F8013B00F8013B80D331F8023B20F8F6
:1010B000023B7BE7043AD9D3013A11F8013B00F82F
:1010C000013BF9D20B7803704B7843708B788370B7
:1010D000604670474FEA410C7FEA6C5C02D150EAEF
:1010E000013C0AD14FEA430C7FEA6C5C02D152EA20
:1010F000033C02D14FF0000070474FF001007047F1
:101100004FEA410212F5001215D211D56FF478732F
:10111000B3EB625212D94FEAC12343F0004343EAD2
:10112000505311F0004F23FA02F018BF40427047AD
:101130004FF00000704750EA013005D111F0004037
:1011400008BF6FF0004070474FF00000704700BFCD
:101150002DE9F04786468C460846089E154674469B
:101160001946002B40F0C2808542B2FA82F245D97E
:101170004AB1C2F1200300FA02FC2EFA03F39540B3
:1011800043EA0C0C94404FEA154EA8B2BCFBFEF8A3
:10119000230C0EFB18CC08FB00F943EA0C439945DD
:1011A00028D9EB1808F1FF3704D2994502D9A8F1E4
:1011B00002072B44A3EB0903A4B2B3FBFEFC0EFB16
:1011C0001C330CFB00F044EA0344A04214D92C1950
:1011D0000CF1FF3304D2A04202D9ACF102032C443B
:1011E000241A43EA07401EB1D440002334607360E0
:1011F000BDE8F0874746DDE76346F1E792BB431B56
:1012000001214FEA154EAFB2B3FBFEFC200C0EFBE2
:101210001C330CFB07F840EA0343984562D9EB18EE
:101220000CF1FF3004D2984502D9ACF102002B44F6
:10123000A3EB0803A4B2B3FBFEFC0EFB1C330CFBB8
:1012400007F744EA0344A7424ED92C190CF1FF33A7
:1012500004D2A74202D9ACF102032C44E41B43EAB6
:101260000040C0E7C2F1200320FA03F1954090400E
:101270002EFA03F303434FEA154EAFB2B1FBFEFC67
:101280000EFB1C10190C0CFB07F841EA00418845C5
:1012900004FA02F422D969180CF1FF3004D288450F
:1012A00002D9ACF102002944A1EB08019BB2B1FBC9
:1012B000FEFC0EFB1C110CFB07F743EA01439F42A7
:1012C0000ED9EB180CF1FF3104D29F4202D9ACF1D8
:1012D00002012B44DB1B41EA004192E76046E3E751
:1012E0006146F7E76046A3E76346B7E7834206D95E
:1012F00016B9002108467BE7C6E900E0F9E7B3FA32
:1013000083F78FB9834201D3724508D8BEEB02043C
:1013100060EB030301209C461EB9002168E73846B4
:10132000FAE7C6E9004CF8E7C7F1200CBB4022FA07
:101330000CF41C432EFA0CF120FA0CF3B8400143D4
:101340004FEA14490EFA07F5B3FBF9F81FFA84FEC9
:1013500009FB18300B0C08FB0EFA43EA00439A45D0
:1013600002FA07F240D9E31808F1FF3004D29A4597
:1013700002D9A8F102002344A3EB0A0389B2B3FB0C
:10138000F9F809FB183308FB0EFE41EA03418E45CC
:101390002CD9611808F1FF3304D28E4502D9A8F187
:1013A0000203214443EA0040A0FB0298A1EB0E0196
:1013B0004145CE46434602D306D14D4504D2B9EB52
:1013C000020E68EB04030138002EA6D0B5EB0E0226
:1013D00061EB030101FA0CFC22FA07F34CEA030368
:1013E000F940C6E9003198E74046C5E74346D9E7EA
:1013F0002DE9F04704468AB0884617464BF0DAFEDE
:101400000A220023FFF72AFDB8F1010F06460D4618
:1014100008D1CDE900012A4A0821204643F013F8FB
:10142000002012E07F6827483946FEF73DFF78B17B
:1014300025483946FEF738FF50B12046234A3B463F
:10144000012143F000F86FF004000AB0BDE8F08716
:101450003046294618A3D3E90023FFF7AFFC064620
:101460000D46104619461A4A0023FFF7A7FC80468E
:101470000F46104619464EF660220023FFF79EFCE9
:1014800082468946104619464FF47A720023FFF7C8
:1014900095FCCDE904A9CDE90601CDE90823CDE904
:1014A0000287CDE900650B4A0821204642F0CBFFB8
:1014B000B6E700BFAFF30080005C26050000000027
:1014C000A6110608B7110608BA110608C3110608C6
:1014D00080EE3600DA1106082DE9F0470D468EB091
:1014E0000023042408A92846CDE90834CDE90A33AD
:1014F000CDE90C3317680EF0D5FB064620B96FF026
:1015000004000EB0BDE8F0872146284645F0BAF940
:10151000284645F0E0FA032822D907A9284645F0D5
:101520007DFA0028EBD119F05FF8079B2C49DFF812
:10153000B490C31AB3FBF1F801FB18310793A1FB78
:10154000090125A3D3E90023FFF788FC264B274A8E
:1015500009FB08001021B0FBF3F30AA825F0C0FC3A
:10156000BC88EB8EDFF8888064BA07F10801A4B26A
:101570000220E41AD8F860900DF04AF807F118013B
:10158000824602200DF044F895F846307288F979C9
:10159000FF2B14BFAE3B174B52BA18BF1BB292B20F
:1015A000043C0AADCDE90221CDE90435CDE900A026
:1015B000114A23460821484642F045FF7388D8F86F
:1015C00064205BBA9BB2934201D0002099E708489F
:1015D00013F04AFDF9E700BF007A030A000000009B
:1015E000007A030A00CA9A3B40420F00A75006083F
:1015F000882E00200080FFFFB25006080000000087
:101600002DE9F04F016C9FB016461F46CDE90467E7
:101610002B9D039049B1426C4A60012393400446DC
:101620008B6028F06BF800232364B7F10009B4BF86
:10163000012300232B60764BBCBF29F00049CDF875
:10164000149033EA090300F0AA80DDE90434002293
:10165000184621460023CDE90801FFF76FFC8046BC
:1016600068B12A9A012313602C9B13B12C9A694B01
:101670001360694B0A930A981FB0BDE8F08F1CAB4A
:1016800001931DAB00930398DDE9082328F06AFB62
:101690005FEA1955824640F09880DDE91C85454493
:1016A00005F23243202B40F38383C3F1400309FA50
:1016B00003F905F2124326FA03F349EA0300FFF7A0
:1016C000F1F80123013DA1F1F8711193534B002270
:1016D000FEF7AAFF48A3D3E90023FFF75DF948A36B
:1016E000D3E90023FEF7A2FF064628460F46FFF780
:1016F000E9F845A3D3E90023FFF74EF902460B466C
:1017000030463946FEF792FF06460F46FFF7F8FCD3
:1017100000228346002330463946FFF719FC002893
:1017200040F01A83A8EB0508BBF1160F08F1FF344F
:1017300000F28B813A4D05EBCB05D5E90023DDE9BD
:101740000801FFF705FC002870D00023002C0BF1E6
:10175000FF3B1093C0F27E8100230B93BBF1000F7F
:101760006ADA0B9BA3EB0B030B93CBF10003CDE9E0
:101770000EB3289B092B4FF0000B65D8052B40F3C7
:101780001C83043B28930025289B023B032B00F27B
:101790002386DFE813F060045D04540438042A9AB9
:1017A000C9F3130942F20F7359EA060913601CD1F9
:1017B0002C9B002B00F02B861A4B0A9308332C9A93
:1017C0000A9813601FB0BDE8F08FDDE90812C2F37C
:1017D0001303084643F07F51CDF84480A5F2FF354E
:1017E000DDF8708041F4401170E72C9B002B40F035
:1017F000E7830D4B0A933EE761436F63A787D23FB0
:10180000B3C8608B288AC63FFB799F501344D33FEF
:101810000000F07FB1F20508B0F205080000F83FC3
:1018200040B30508D4F20508E0F20508B8F1000F4E
:1018300040F3608410900B9000230F93289BCDF809
:1018400038B0092B5C4499D90023CDE92833012510
:101850004FF0FF330C950693039B00215964069BC0
:101860001893039827F024FF0A90002800F0BD8504
:10187000039B0A9A1A64069B0E2B00F21581002D19
:1018800000F012810E9A002A40F33B84B24D02F020
:101890000F0305EBC303D3E9008913461511DA05DD
:1018A00040F1FA83AD4BDDE90801D3E90823FFF7E6
:1018B0009DF9CDE9120105F00F0503277DB1A74E73
:1018C000EB0708D540464946D6E90023FFF764F800
:1018D0000137804689466D1006F10806F0D1424670
:1018E0004B46DDE91201FFF781F980468946109BDE
:1018F00043B19B4B002240464946FFF729FB002895
:1019000040F0F1843846FEF7DDFF42464B46FFF7D4
:1019100043F8944B0022FEF789FE069B0646A1F190
:101920005077002B00F0A9800E9B1993069B129311
:101930000A9B894D49464046CDE914675E1CFFF776
:10194000DFFB129905EBC10353E902120746CDE90B
:101950001612FEF7B7FF02460B4640464946FEF711
:1019600063FE89460C993037DDE916238046FFB2C5
:10197000002900F053847C490020FFF737F9DDE9A6
:101980001423FEF751FE0A9D02460B46CDE91423AF
:101990002F7042464B46FFF7F9FA002840F0978433
:1019A000CDE91AB4CDF858A0129DDDE914AB00279B
:1019B0002AE00137AF4280F2DE846C4B5046594634
:1019C0000022FEF7E9FF694B002282468B46404623
:1019D0004946FEF7E1FF89468046FFF791FB044642
:1019E000FEF770FF02460B4640464946FEF71CFED6
:1019F000303406F8014B52465B4680468946FFF775
:101A0000A7FA002840F0B48442464B4654490020CF
:101A1000FEF70AFE52465B46FFF79AFA0028C8D046
:101A2000199BDDF858A00A9A374603F1010802E035
:101A3000974200F07C843E4617F8013D392BF7D0E1
:101A40000133DBB23B70454675E10123002C109356
:101A5000BFF682AEC8F101030B9300247EE6384640
:101A6000FEF730FF42464B46FEF796FF3D4B002205
:101A7000FEF7DCFD0646A1F150773D4B4046494656
:101A80000022FEF7D1FD32463B4680468946FFF7ED
:101A90007DFA002840F05A8440464946324607F114
:101AA0000043FFF755FA28BB1D9B002BC0F2928024
:101AB0000E9A0E2A00F38E80274D0E9B05EBC30570
:101AC000D5E90034CDE90434299B002B19DA069BB3
:101AD000002B16DC0ED1264B0022DDE90401FEF7B7
:101AE0005BFF02460B46DDE90801FFF73BFA0028E1
:101AF00000F02C844FF000090A9E4F46299BDD43DD
:101B000025E2DDE90445DDE9088922462B46404609
:101B10004946FFF76BF8FFF7F3FA0646FEF7D2FEE9
:101B200022462B46FEF738FF0A9F0B4602464946DF
:101B30004046FEF779FD06F1300307F8013B069BAE
:101B4000012B00F012830125CDF818A09946DDE99C
:101B500004ABA8462CE000BF40B3050818B3050845
:101B60000000F03F00001C400000E03F0000244067
:101B70000000144052465B4620462946FFF736F8DF
:101B8000FFF7BEFA0646FEF79DFE52465B46FEF79D
:101B900003FF08F101080B46024629462046FEF7DE
:101BA00043FD06F13003C84507F8013B00F0DB8236
:101BB000B94B0022FEF7F0FE0022002304460D463A
:101BC000FFF7BCF90028D5D00E9DDDF818A001352F
:101BD0003E46B0E00C9A002A40F0D28000230F9DD0
:101BE0000B9E0C931F4656B1002C08DDA6420B9AA3
:101BF0003346A8BF2346D21A0B92F61AE41A0F9B5B
:101C000053B10C9B13B1002D40F0E88251460F9A5E
:101C1000039827F003FF82460398012127F01AFE5C
:101C20008146BBF1000F40F0B681289B012B40F3A9
:101C3000CC810120204410F01F0000F09A80C0F1F8
:101C40002003042B40F3DA810B9BC0F11C000344FA
:101C50000B93064404440B9B002B05DD514603986F
:101C60001A4627F035FF8246002C05DD49460398C9
:101C7000224627F02DFF8146109B002B40F07081FB
:101C8000069B002B40F348810C9B002B40F0A48066
:101C90000E9D0135DDF82880069CDDF80CB001268C
:101CA00007E0514600230A22584627F031FD01364D
:101CB00082464946504627F015FBA64200F1300304
:101CC00008F8013BEDDB069A002AC8BF16460A9ABF
:101CD000D8BF012602EB060B0024514601220398CF
:101CE000049327F0F5FE4946824627F069FF002855
:101CF00040F3E3810A9A02E05A4500F0E9815E462A
:101D00000BF1FF3B16F8013C392BF5D001338BF872
:101D10000030DDF80C804946404627F0EFFC57B113
:101D20002CB1BC4203D02146404627F0E7FC039883
:101D3000394627F0E3FC0398514627F0DFFC0023E7
:101D400033702A9B1D602C9B002B3FF494AC0A98A7
:101D50001E601FB0BDE8F08F5846FEF7B3FD324657
:101D60003B46FFF7EBF800287FF4DCAC0BF1FF3BC0
:101D7000D8E41C230B9A1A440B921E441C446AE7B5
:101D8000289A012A40F3A981069A0F9B551EAB425F
:101D9000C0F26B81002AA3EB050580F2DD820B9B6C
:101DA000069A9E1A0398012127F054FD07461AE768
:101DB000C3F1200306FA03F081E40125E4E4394687
:101DC000002303980A2227F0A3FC189B002B074648
:101DD00040F3EF820E950693002E00F33F81BBF196
:101DE000000F40F0DF81B8460A9E069C731E1C441B
:101DF000049B0C9403F00103039C0F934946504647
:101E000027F070FA39468346504627F0D9FE4246FD
:101E100049460546204627F0F3FEC26801460BF10D
:101E20003003002A3AD1089050460B9327F0C8FEA1
:101E300008990690204627F061FC069A0B9B002A21
:101E40005AD1289A1AB90F9A002A00F09A82002DC6
:101E500045DB0C9AB346B2420BF8013B00F0B98166
:101E6000514600230A22204627F052FC474582466D
:101E700039464FF000034FF00A02204636D027F0D3
:101E800047FC4146074600230A22204627F040FC33
:101E90005E468046B2E700BF0000244003980693E8
:101EA00027F02CFC002D069B06DB049A289902F0F3
:101EB00001020D432A432AD151460122039804937B
:101EC00027F006FE4946824627F07AFE0028049B4A
:101ED00040F3E880392B00F02F820BF131030E9D87
:101EE00006F8013B3C460135474612E727F010FC57
:101EF0005E460746804681E7002DC0F27D82289924
:101F00000D430F990D4300F07782002AA1DD392B94
:101F100000F012820133E2E7289B022B7FF7B4AE78
:101F2000069B002B40F01D8149460522039827F0AF
:101F3000EFFB01468146504627F042FE002840F361
:101F400010810A9E0E9D312306F8013B013503984E
:101F50004946013527F0D2FB002F7FF4E8AEEAE6D0
:101F60004946504627F02CFE0028BFF689AE514660
:101F7000002303980A2227F0CBFB0E9B5D1E0C9BCF
:101F80008246002B7FF41BAF189B002B40F3FF8190
:101F90000E9D06937EE601465A46039827F03EFDC5
:101FA000289B012B81466CDD4FF0000BD9F81030D7
:101FB00009EB8303186927F0FBFBC0F1200039E629
:101FC000924B0A930333FFF7FABB049B002B7FF479
:101FD00030AEDDE90412C2F31303002B7FF429AE07
:101FE0008B4B134023B10B9B01330B930134012323
:101FF000BBF1000F40F0AE819B461AE63FF42BAEDA
:10200000C0F13C03B6E601230C93299B0E9A1344BE
:1020100018930133012B1E460693B8BF0126172ED5
:1020200040F3D581012204235B0003F11400B04288
:10203000114602F10102F7D9039B596411E401230F
:102040000C93299B002B33DD189306931E46E6E77D
:1020500000230C93D9E700230C93F2E73946039849
:10206000324627F035FD0746B9E60F9B069A0F95D5
:10207000EB1A9B440B9B1E46134414440B93002500
:1020800090E6049B002B8FD1DDE90401C1F313031B
:102090000A46002B88D1A3E7DDE908230227CDE912
:1020A00012230BE47FF41BAFDA077FF518AF11E7BB
:1020B000012329930693FFF7CFBB03D1049BDB07D2
:1020C0003FF518AE5E461BF8013D302BFAD020E6F6
:1020D0000A9A3123013513701BE6119A002A00F089
:1020E000F98003F233430B9A0F9D16461A441C44A1
:1020F0000B9257E6C8F1010304460B931090FFF7CB
:102100009BBB00F0EB800E9B424D5E4206F00F033E
:1021100005EBC303D3E90023DDE90801FEF73CFC2E
:102120003511CDE9120100F04D813B4E002302270D
:1021300080468946E80709D5D6E900234046494646
:10214000FEF72AFC01378046894601236D1006F10F
:102150000806EFD1002B7FF4CAABDDE91289FFF747
:10216000C6BB0A9ECAE4DDF818A00E9D02460B46C7
:10217000FEF75CFA02460B46CDE906230135DDE9A0
:102180000423A846FEF702FF40B9DDE90423DDE998
:102190000601FEF7D3FE18B1F10701D50A9A4AE409
:1021A0003E46C8E57968039827F082FA054600287C
:1021B00000F026813B6902339A0007F10C010C30D4
:1021C000FEF7EEFE03982946012227F081FC8046A7
:1021D0000AE60E9D3C46013547467EE5DDF80C805B
:1021E00039462A46404627F019FC52460146074622
:1021F000404627F05DFB51468246404627F07EFA76
:102200000F9B5B1B0F933FF407ADFFE4E0F2050863
:102210000000F07F40B3050818B30508DDE914019C
:10222000FEF7BAFB0A9B1F70129B012BCDE90C0134
:1022300000F0C680129F0A9BCDF844B01F447C4B2F
:10224000002240464946FEF7A7FB89468046FEF736
:1022500057FF8346FEF736FB0BF1300B02460B4669
:1022600040464946FEF7E0F906F801BBB742804612
:102270008946E4D1DDF844B06E4B0022DDE90C0163
:10228000FEF7D4F902460B4640464946FEF77EFE6D
:10229000002867D1DDE90C2366490020FEF7C4F968
:1022A00002460B4640464946FEF752FE48B91D9B82
:1022B000002BFFF693AC0E9B0E2B3FF78FACFFF776
:1022C000FCBB3E46013F16F8013C302BF9D0199D6E
:1022D000013530E51C9BC3F1360304E7DDE90889CD
:1022E0000227FFF704BB069B002B3FF4B8AB189BFB
:1022F000002B7FF7D9AB0E9A1293013A4C4B1992EF
:10230000404600224946FEF747FB80468946781C36
:10231000FEF7D8FA42464B46FEF73EFB464B0022FC
:10232000FEF784F90646A1F15077FFF701BB08F1EB
:1023300001083123FFF786BB0E9D0A9AB346392365
:102340003C460BF8013B01354746D8E44FF0000905
:102350004F46F6E59B4629E60B9B1E461344144464
:102360000B931FE5199B0A9A03F10108FFF763BB62
:10237000DDF858A0ABE7DDE91AB4DDF858A0FFF7A7
:1023800093BB392BD8D0002D3FF7A7ADA7E5289BED
:10239000022B0ADC189B069349460E9D26F0A2FFED
:1023A0000A9A00F1300313708DE4189B06930E9582
:1023B000B6E5289B022BF8DC189B0E9506930BE5DF
:1023C000374659E7DDE912890227FFF790BA039BE8
:1023D00000215964FFF745BA039B00255D64294637
:1023E000184627F065F90A90A8B9144B1448002242
:1023F0004FF4D57127F0D0FD002A7FF770AD5BE573
:102400000E4B0F482A4640F2EA2127F0C5FD0D4B3E
:102410000A93FFF730B9039B0A9A1A644FF0FF330F
:102420000122299518930C920693FFF73DBB00BF3C
:10243000000024400000E03F00001C40E4F20508DA
:10244000F8F20508D4F205082DE9F3411E461C4BAD
:1024500083424FF000038B41044615460AD216A36F
:10246000D3E90023FEF7FAFC164914460246284633
:102470004DF068FE144BB4FBF3F24EF6602103FB03
:1024800012444FF47A78B4FBF1F3284601FB13446D
:102490000E49B4FBF8F700974DF054FE46B10C49D5
:1024A00008FB1742284602B0BDE8F0414DF04ABE95
:1024B00002B0BDE8F08100BF005C2605000000000E
:1024C000FF5B260584A3060880EE36008AA3060873
:1024D00099A3060830B50D4DC0430A44914201D17D
:1024E000C04330BD11F8013B83EA000404F00F043F
:1024F00055F8244084EA101080EA131303F00F0308
:1025000055F8233083EA1010E8E700BF08B4050847
:1025100010B5094C0A44914200D110BD11F8013B9D
:10252000584003090001E35CC0B2434018091B0195
:10253000205CDBB25840EEE7C4FF05082DE9F84304
:1025400000AF81468846154600F0BAF8C3680446D5
:102550001BB943691A78002A55D10023E3606368E8
:102560004B4558F8232009DB444B6361204600F0BB
:102570008DF84FF0FF30BD46BDE8F883511C616116
:1025800016782D2EF0D1911C61615178A1602D2912
:1025900004D1927862B901336360E5E741B9374B02
:1025A00063613146284624F0DFFC0028DED0A660B7
:1025B000A6682846314624F0D7FC3A2E626900D03E
:1025C00030BB137813B96368013363602368ABB120
:1025D0002B783A2B12D02A48036859070ED06D4643
:1025E00088B06A46274BC2E90536032342F8103FFC
:1025F00000234FF4C25102F03DFEAD46204600F0EC
:1026000045F83F20B7E75A1C42611B788360CFE74B
:1026100043783A2B0BD000232361137813B96368F6
:1026200001336360204600F031F8A068A3E7137817
:10263000616812482BB901318945616004DD58F8A1
:102640002120C4E90420EAE760612D783A2D04D105
:10265000204600F01BF828468DE72268002ACDD0DE
:10266000074802685207C9D06D4688B06A460649D5
:10267000C2E90516032142F8101FBAE7F94D060812
:10268000E41A0020D4FF0508E9FF0508074B02689B
:102690001A60074B42681A60064B82681A60064B44
:1026A000C2681A60054B02691A607047B40F0020B7
:1026B000B00F002038A7002034A7002030A700204A
:1026C00000487047980F002038B5044C044DAC42C8
:1026D00000D338BD54F8043B9847F8E768B00508C4
:1026E00068B0050838B5054C256804EB850405B9C4
:1026F00038BD54F80439013D9847F8E75CB0050847
:102700002DE9F04F91B08407009302F00403029387
:10271000C2F3C20303F10103DDF8688003920546AA
:102720000E46059340F0F581041D30B1072909D804
:102730006FF01B0011B0BDE8F08F01F00706341DEB
:10274000C6F10806009B4FF00009013B4FF0040B57
:102750000193CDF810904F464B464FF0FF32DA46CA
:102760000DB1009921600598002800F3D7809848A2
:102770000099814203D397488142C0F0CF800399EA
:10278000A4EB050E89074FEA9E0040F1E2804FF06E
:10279000000CCCE07A285AD84B280CD8472856D8B9
:1027A00029282AD8252851D051D8202877D0233855
:1027B0004342434173E04C382E2848D8DFE800F00C
:1027C0006F4747474747474747474747494747476F
:1027D0004747474747594749495959596F496C47EE
:1027E0006F471849184747807D49474749477D004B
:1027F000002000234FF0040B39E02A38C0B2012139
:1028000001FA00F010EA0E0F49D110F0625C30D1ED
:1028100010EA010343D06046013C5C44B4FBFBF486
:102820000BFB04F4002D60D0AAEB050CA444664514
:10283000FFF47EAF00286AD1BAF1040F45D158F8F1
:10284000040B206004344FF0040A28E0013A00230E
:1028500025E0019B13F8013C6C2B33D1019B13F84D
:10286000023C00206C2B0346C4D14FF0080BDA4623
:10287000D2E708F1070828F007080734F8E802ABA8
:1028800024F0070435B106982044B0423FF650AF1B
:10289000C4E900AB083400234FF0080BDA46019975
:1028A00011F8010F0191002800F0BB80002B7FF48C
:1028B00071AF2528F3D1013201234FF0040BEDE76E
:1028C000184696E700200346A6E7BAF1080F40F045
:1028D0009A8008F1070828F00708F8E80201C4E91F
:1028E000000108344FF0080AD9E780B9BAF1040FA3
:1028F00002D108F10408A5E7BAF1080F40F083807F
:1029000008F1070828F0070808F10808E9E7059921
:102910000139059158F8041B009121E703998807B4
:102920004AD5A4EB050E4FEA9E004FF0010CBEF510
:10293000007F1ED32849294A294840F27B2340F0D2
:1029400016FB284840F013FB40F27B21234840F05F
:1029500007FB0F2F0FD8002D48D007F140010DEBDA
:10296000010C0CF8200C0CF8102C04980130049089
:1029700021E00F2F0CD91849184A19484FF4207339
:1029800040F0F5FA184840F0F2FA4FF42071DDE714
:10299000CDB107F140010DEB010EC0B20EF8200CD5
:1029A0000EF8102CBCF1000FDFD060F07F000EF8A5
:1029B000200C09F101090137C5F108010434069121
:1029C0004FF6DA7E6BE7BCF1000F0FD00136F2E76D
:1029D0007CAA050834B00608C48F06081200060851
:1029E000400006085D0006087E00060802980236D0
:1029F0000028E0D10098CDE90632FDF7E1FBDDE9E2
:102A000006320644D7E7444A4449454840F2C523C4
:102A100040F0ADFA5146434840F0A9FA40F2C521D2
:102A200094E7631BB3F5806F0CD33C493A4A3C48AA
:102A300040F2D12340F09BFA3B4840F098FA40F234
:102A4000D12183E71DB9A6F10804E01872E6029AC5
:102A500028609B082B709DF81030C2B1EB7085F890
:102A60000290B9F1000F05D008A80022C5F1010CB1
:102A700097420ED1C5F101030DF120084FF0000A75
:102A800001930DF1300B574512D1601B52E66B706C
:102A9000E5E710F8013B190608D504EB0C0E764566
:102AA00003F07F03FFF444AE04F8013B0132DFE79B
:102AB000B9F1000F03D098F90020002A17DB029B20
:102AC000D3B11AF80B2004F8012B0022019B9818AF
:102AD00020448642FFF42CAE98F8000004F8010B65
:102AE000009903922046FEF75BFA039A14440AF118
:102AF000010A08F10108C6E798F8002055F82230CD
:102B00000093029B45F822300098FDF759FB421CC8
:102B1000DCE76FF00D000DE612000608C48F060812
:102B20004000060898000608AD0006082DE9F04FA1
:102B300095B000AF8A467A62BB61044658B9A54990
:102B4000A54AA6484FF4657340F011FA4FF4657139
:102B5000A14840F005FABB6F90F802B0C3F3C00380
:102B6000FB6041B9457800780BEB80002044554567
:102B700017D8A0EB040AE3787B61BBF1000F02D009
:102B8000BB6FD80716D47B6953BB7B6A1BB1BA698C
:102B9000514620469847554628465437BD46BDE81D
:102BA000F08F461C3046FDF70BFB013030440AF134
:102BB000010ADCE723783B629B003B613B6A626869
:102BC000FA6104EB83097B6A002B40F013815546C0
:102BD000C84609EB0B0A0026C24555D1D94413E07B
:102BE000BB6F9907D1D523783B6299469B003B6127
:102BF0006368FB617B6A04EB8909002B7ED1554633
:102C0000BBF1000F53D15E46BB6F13F0050F7B691C
:102C100009EB430ABB6F03F002030CBF4FF0020B3A
:102C20004FF0010B7B62D145B6D019F8021B19F8A1
:102C3000013C54F823806A4B984502D3694B984570
:102C40003CD3FB68002B46D0F8693FF033FF0028E7
:102C500041D06548036813F0060F13D0E8468AB0E8
:102C60006A46624B5361FB69C2E906314FF4007357
:102C700013845F4B42F8103F00234FF4125102F0CF
:102C8000F9FAC546023DCEE718F8013B54F8230097
:102C9000FDF796FAFB6F01303BB1D7F880309E42CA
:102CA0003EBFFB6F23F816000136054494E7BB6F67
:102CB00013F004061CBF7E6AD944A5E7FB6823B164
:102CC000F8693FF0F7FE0028C3D1BB6FDA0705D4DF
:102CD000A5EB0B05A7E77B6A002BA4D04046FDF7C8
:102CE0006FFAFB6F43B1D7F880309E423FBFFA6F57
:102CF000431C22F816300136054494E7BBF1000F5F
:102D00007ED0BB6F13F004067DD0D846002607F1B5
:102D100040005A464946FEF743F97B695B007B60F9
:102D20007B69D94409EB4303BB60BB6F03F002032B
:102D30003B60BB68994568D1B96F6378B86F890704
:102D400006EB030254BF4FEA58010021C507D2B277
:102D500000F1DE8010F0040F14BF40460020FB613C
:102D60006270A070E170BA6939697B6A2046984741
:102D7000051EFFF611AF3B6A2370FB6963707B6928
:102D8000E3704146BA697B6A84F802B007F14000FB
:102D90009847B0F10008C0F2E8803B69BA69AAEB35
:102DA0000B01C91A7B684846C91A7B6A98470028F4
:102DB000C0F2DD80A84408EB00054FF0000B07F1DE
:102DC000300AB345C0F0A6800021BA697B6A084684
:102DD0009847E1E6C400060812000608400006080D
:102DE0007CAA050834B00608D01A0020DF000608C7
:102DF000040000015E464FF0000807F1300088E74C
:102E00005E46D84689E7B04687E719F8021B594B5A
:102E100019F8015C54F82500984202D3564B9842A9
:102E200015D3FB6823B1F8693FF044FE002880D138
:102E30003B68002B4AD00F2E3ED95049504A51488A
:102E40004FF4896340F093F84FF4896180E6FB68A2
:102E50002BB1F8693FF02EFE00287FF46AAFBB6FFC
:102E6000DB070BD50F2E27D94449454A454840F288
:102E70003E4340F07CF840F23E4169E6BB6F5807A4
:102E80007FF557AFB8F10F0F09D93F493C4A3D488C
:102E900040F2414340F06BF840F2414158E608F1FE
:102EA000280307F1280208F1010103EB020808F8E2
:102EB000105C5FFA81F83CE706F1280307F128026D
:102EC000711C9E1806F8205CCEB232E7B8F10F0FE5
:102ED00009D92D492A4A2B4840F24B4340F047F884
:102EE00040F24B4134E608F1280307F1280208F1CB
:102EF000010003EB020C07F1500353FA80F008F1D4
:102F000002080CF8101C5FFA88F800F8105C10E753
:102F1000002024E71BF80A3087F82F3054F823905C
:102F2000FB6FFBB133F81B80BA697B6A012107F1A3
:102F30002F00984700281ADB0544B8F1000F06D18E
:102F40004846FDF73DF900F101081FFA88F8BA6913
:102F50007B6A414648469847002808DB05440BF148
:102F6000010B2EE7D7F87C80DEE7454614E60546E0
:102F700012E600BF7CAA050834B0060882010608E4
:102F80001200060840000608A1010608014B18605F
:102F9000704700BFB80F002030B587B00025CDE9DD
:102FA00003010446009503A90548059500F044FA7D
:102FB000DDE904309842B8BF255407B030BD00BFEA
:102FC000A32B040870B50C46002934D002680B1FEF
:102FD0009B1AD90823F0070313445D88E8070DD432
:102FE000154A16491648AF233FF0C1FF2146154840
:102FF0003FF0BDFFAF2110483FF0B2FF10463FF059
:1030000009FE084432F83060801B81420BD00A4A26
:103010000D490B48B7233FF0AAFF21460B483FF06C
:10302000A6FFB721E7E725F001055D80BDE8704008
:1030300010463FF0ACBE70BDD2010608F301060891
:1030400040000608040206083C0206086202060860
:103050002DE9F8434B1E0B4006680F46144611D06D
:10306000C1F1000909EA01094A46042A03F1FF31C6
:1030700028BF042219420CD11F46E4B90025284676
:10308000BDE8F883042913D8BDE8F84311463FF0A2
:10309000AFBE2D492D4A2E484FF4A2733FF067FF73
:1030A0002C483FF064FF29484FF4A2713FF058FFCD
:1030B00099460422E1E7B368B3EBD40FDED904F1FB
:1030C0000B013944891AC90830463FF0F9FD8046A2
:1030D0000028D3D009F1040505EBC0057B1E35445B
:1030E0001D44B5FBF7F57D43A5EB09052C442B1FCB
:1030F00007349B1B24F00704A41BB0EBD30F4FEA4B
:10310000D3074FEAE40408D201463A4630463FF07E
:1031100024FE414630463FF082FD394630463FF0BE
:1031200079FD3844844207D2304622463FF015FEEE
:10313000214630463FF073FD06EBC706738843F027
:10314000010373809BE700BF9E020608D2010608B8
:1031500040000608B9020608B2F5802F2DE9F041BB
:103160000ED33C493C4A3D4840F2EB133FF0FFFE92
:103170003B483FF0FCFE40F2EB1137483FF0F0FED9
:10318000042A0CD83749344A34484FF4F9733FF0D5
:10319000EEFE35483FF0EBFE4FF4F971EDE7043AEF
:1031A000CD1D8E1825F0070526F00706761B172E75
:1031B0004FEAD6070CD82D49274A284840F2FB137E
:1031C0003FF0D5FE28483FF0D2FE40F2FB11D4E795
:1031D000B7FA87F4C4F12002C4F12404A400073430
:1031E000E408631C4FF00008BB420560AF60C5F8FF
:1031F0000C800CD91E49184A18484FF403733FF04D
:10320000B6FE19483FF0B3FE4FF40371B5E74146EF
:10321000920005F1100023F0EBFD630043F0010381
:103220006B8005EBC4023B1B5900A5F80080518060
:10323000AA1925F83440A2F80280AB5305EBC70366
:1032400021465A8842F001025A802846BDE8F041E2
:103250003FF0E5BCD6020608D20106084000060889
:10326000EC02060803030608240306083D030608CB
:103270006603060870B54FF0FF331C484FF0FF326D
:1032800020F01AF81A4B0025BFF35B8F1A68BFF3C2
:103290005B8F7AB10135042D03F12803F4D141F09D
:1032A000D7FE172303604FF0FF35104820F0D4F805
:1032B000284670BD28246C43BFF35B8F53E8000F92
:1032C000013043E800010029F8D1BFF35B8F094EBC
:1032D000331932515A6004F10C00304449F07BFE3E
:1032E00004F12000304449F05DFFDEE73C1C002083
:1032F00044A700203CA7002010B40A4B0446104607
:10330000282254431A191951506040B1C26832B191
:103310000C34234440F2051210BC3FF092BD10BCA7
:10332000704700BF3CA7002030B528231049434315
:1033300008330B44BFF35B8F1A68BFF35B8FB2B1E6
:10334000BFF35B8F541E53E8005F954204D143E8FE
:10335000004CBCF1000FF6D1BFF35B8FEAD1012A1C
:1033600005D1282358430A1800230B50536030BD61
:103370003CA70020F0B5094E016802460A2700204C
:103380000B4601311C78355D6D0701D41360F0BD2B
:1033900007FB0043A3F13000F2E700BF69F1050825
:1033A0002DE9F84F15469A46D378224A12F803B011
:1033B0006F2B80460F460BF0030B29D024D8582BD7
:1033C0000CBF10260A26DDF828903246002340461E
:1033D0003946FDF743FD092AD4B21ED83034B04532
:1033E000E4B277F1000709F8014D01D3D14511D8B6
:1033F0002B789B0605D5082E15D1AB7843F0080332
:10340000AB704846BDE8F88F03F0F703702BD7E7A1
:103410000826D8E780460F46D7E7BBF1010F0CBF5F
:1034200037345734DBE7102EEBD1AB7843F0100381
:10343000E6E700BF69F105082DE9F04F97B08A462D
:10344000039016461C460025307808B928464BE301
:10345000731C2528049307D0039B514698470028E6
:10346000C0F242830135F0E11822002110A823F0B8
:10347000BFFC7378252B00F0A3800023711C9846B5
:103480009E469C4618460F4611F8012B2B2A00F049
:10349000C68000F2BD80202A00F0C480232A00F0FC
:1034A000C4802BB19DF8483043F040038DF848307C
:1034B000B8F1000F05D09DF8483043F020038DF897
:1034C0004830BEF1000F05D09DF8483043F010039E
:1034D0008DF84830BCF1000F05D09DF8483043F01E
:1034E00008038DF8483028B19DF8483043F00403B4
:1034F0008DF848309DF8483003F04401442903D149
:103500006FF386138DF848309DF84830099743F0E3
:1035100080032A2A8DF8483040F08C809DF849308D
:1035200043F001038DF849307B1C1A782E2A9DF850
:1035300049200CBF0121002161F341028DF849208F
:103540000CD15A1C09925A782A2A40F083809DF89F
:10355000492042F004028DF8492002331A786C2A7F
:1035600000F0A48000F28680682A00F08C806A2A2D
:1035700000F0A5804C2A00F0AA801A4612F8013B00
:103580000492782B9DF849208DF84B3000F217817A
:103590006D2B00F2A980692B00F21181572B00F2EC
:1035A000BE80412B03D0453B022B00F208819DF8E1
:1035B0004A30042262F302038DF84A300123CAE044
:1035C000B21C04928DF84B309DF84930D90740F178
:1035D000FD8054F8048BB8F1000F07DA9DF84820FD
:1035E00042F004028DF84820C8F100085A0740F163
:1035F000F68054F804BBBBF1000F80F2F5809DF813
:1036000049306FF341038DF849304FF0FF3BEBE059
:103610002D2A0DD0302A7FF444AF012333E74FF039
:10362000010C30E74FF0010E2DE74FF001082AE7BB
:10363000012028E709A8FFF79DFE099BBB423FF444
:1036400074AF9DF848201390C00F60F341028DF8CD
:1036500048206AE709A8FFF78DFE9DF848301490CE
:10366000C3F3400242EAD07262F341038DF848305E
:10367000099B73E7742A26D07A2A7FF47EAF9DF8DF
:10368000492006210CE05A78682A9DF8492006D185
:10369000012161F3C6028DF8492002336DE7022152
:1036A00061F3C6028DF84920013366E75A786C2A27
:1036B0009DF8492001D10421EBE70321F0E79DF8B3
:1036C00049200521ECE79DF849200721E8E7BDF8EE
:1036D000482022F4F04222F0020242F4804242F0FA
:1036E0000202ADF84820DFE76E3BD9B201238B40E0
:1036F00040F282410B4238D113F0240F52D1DF0740
:103700005DD59DF84A30032161F302038DF84A30FC
:1037100002F07803A3F14000434243411BE0A3F1D0
:103720005801C9B2012000FA01F111F4624F7FF48F
:103730003EAF40F6010739421DD111F4043F3ED09F
:103740009DF84A3060F3020302F07802402A8DF8B7
:103750004A3034D000239DF84820C2F340010B4387
:1037600063F341028DF848202EE79DF84A3002218C
:1037700061F30203E8E79DF84A10022002F07802A4
:1037800060F30201402A8DF84A1002BF9DF84810EC
:1037900041F001018DF84810632BDBD1131E18BFD7
:1037A0000123D8E79DF84A30032161F3020312F0A8
:1037B000780F8DF84A3014BF01230023CBE79DF822
:1037C000483043F001038DF84830C3E79DF94820A5
:1037D000002AB4BFDDF84C804FF0FF3806E79F07A2
:1037E0007FF513AFDDF850B09DF849100023CDE907
:1037F00013339DF84A3003F00703012BC1F3C301D3
:1038000033D1CB1E042B04D8DFE803F02146462138
:103810002100236801294FEAE372CDE910321CD15F
:103820009DF94030DA17CDE9103204349DF8483064
:1038300013F0030750D0049B0398324651463FF0E3
:103840000FFB0028C0F250810544049EFCE554F8AB
:10385000043BDA17CDE91032E8E70229E5D11AB2C4
:1038600043F3C033CDE91023DFE7022B24D1CB1E75
:10387000042B04D8DFE803F01810101818000129F1
:1038800054F8043B4FF0000214D00229CDE9103265
:10389000CCD19BB21093C9E7073424F00704F4E8B5
:1038A0000223CDE91023C1E754F8043B1093002311
:1038B0001193BBE7DBB2CDE7042B08D1073424F02A
:1038C0000704D4E900230834CDE91023AEE7032B25
:1038D000ACD154F8043BDDE79DF84B007828B4D810
:1038E00062281DD825283FF4B7AD5828ADD10DF179
:1038F0003E030093DDE910010AAB12AAFFF750FD69
:10390000BBF1000F814680F29980B9F1000F9CD085
:103910000DF13E06A6EB0903002F50D001334EE017
:103920006338152891D801A252F820F0AD3900086B
:10393000113A00084B3800084B3800084B38000893
:103940004B380008113A00084B3800084B38000883
:103950004B3800084B3800089D3A0008373A0008F9
:103960005F3A00084B3800084B38000885390008DA
:103970004B380008373A00084B3800084B3800082D
:10398000373A0008BBF1000FDDF840900ADB5946DA
:10399000484623F025FCB9F1000F3FF456AF09EB80
:1039A000000677E04846FCF70BFCF8E7109B8DF823
:1039B000283000270DF129060DF1280901239DF873
:1039C0004A1011F01002069200F082800233139A1E
:1039D000059213444A0644BF14995B18B8F1000FCE
:1039E00040F38F80A8EB03089DF848305807C3F3D5
:1039F000800B00F18680590679D53FB1039B514673
:103A00003846984700286FDB01355F4630236FE06A
:103A10001E075CBFC3F300135F01DDE9102348BF3D
:103A20002B27002BBFF663AF524263EB4303CDE974
:103A300010232D275BE7002759E700279DF8481042
:103A40000DF13E03A3EB09036FF386119B458DF83F
:103A500048107FF65AAFABEB0303139355E710986A
:103A600080B30DF13E060AAB009612AA0021FFF7C3
:103A700097FCBDF84A3003F0EF0343F4F04343F002
:103A80001003BBF1000F8146ADF84A30D5DA0028AB
:103A90003FF4DBAEA6EB0903002790E7109B072954
:103AA0003FF6D3AEDFE801F00C04060C08080C0C5E
:103AB0001D70CAE61D80C8E6EA17C3E90052C4E6D5
:103AC0001D60C2E6304E0746A6F10509052376E7DC
:103AD000080748BF01337AE7184607935146039B0E
:103AE00098470028079B04DA17B0BDE8F08F202321
:103AF000C346594600290BF1FF3BEDDC45446D1AE6
:103B0000D84637B1039B5146384698470028EBDB2F
:103B100001359DF84A30DA0601D41B0706D5039B10
:103B20005146302098470028DEDB0135069B3BB12B
:103B30009DF84B00039B514698470028D4DB013584
:103B4000059F2F4406E0039B5146302098470028EC
:103B5000CADB01357B1B002BF5DC039833464A4654
:103B600051463FF07DF90028BEDB0544A844A8EB90
:103B70000503002B7FF769AE039B51462020984731
:103B80000028B1DB0135F2E7960306082DE9F34181
:103B900080460E46154600272A4601A940463FF0BA
:103BA00076F93146044602460198FDF7F9F92D1BD6
:103BB0002744264401D0002CEED1394640463FF040
:103BC00085F948B106490748074A49233FF0CFF92C
:103BD000054849213FF0C4F9384602B0BDE8F081FC
:103BE000BF03060840000608970306082DE9F341C5
:103BF00080460D4616460027324601A940463FF052
:103C00007AF904462DB1024601992846FDF7C8F914
:103C10002544361B274401D0002CEDD139464046BF
:103C20003FF089F948B107490748084A8E233FF019
:103C30009EF906488E213FF093F9384602B0BDE860
:103C4000F08100BFBF03060840000608970306087E
:103C500038B50D4604462022002123F0C9F8EB6850
:103C6000E361AB68A3612B6823626B686362002227
:103C7000A2622A6923B1591E194208BF42F001020B
:103C800022610122002104F12C0049F0E1F948B140
:103C900005490648064A2E233FF069F904482E21BB
:103CA0003FF05EF938BD00BFBF03060840000608BC
:103CB000C80306082DE9F04F89B0CDE90123436A16
:103CC00000278B420446884605970797BA4653D388
:103CD00000F114064FF01003EFF3118B83F31288F9
:103CE000BFF36F8F3046D9461FF06EF858B94B4A74
:103CF0004B494C4872233FF03AF931464A483FF06D
:103D000036F972215EE030461FF07CF8079A2AB13E
:103D1000394620463FF00AFA0023079306A92046B9
:103D20003FF032F90699414505462ED32268236AB1
:103D300013F8221021F0030103F8221003EB820A8A
:103D40002168424620463FF043F9E36820609842EC
:103D500016D0002530461FF045F840B389F311888E
:103D6000BFF36F8F059929B1A2690AB12046904728
:103D700000230593002DADD1504609B0BDE8F08F6A
:103D8000236943F008032361E3E718B120463FF0BD
:103D900039F9DFE7DDE90132134336D0039149F009
:103DA000F7F8039988BB30461FF01CF868B91B4A26
:103DB0001E491C48F0233FF0DAF831461C483FF01A
:103DC000D6F8F02115483FF0CBF88BF31188BFF3FC
:103DD0006F8FDDE9012304F12C001FF055FD05462E
:103DE0004FF01003EFF3118983F31288BFF36F8F45
:103DF00030461EF0E9FF00283FF479AF3046B5FAAF
:103E000085F51EF0FFFF6D09A4E707AB05AA204664
:103E100027683FF014F905469CE700BFEE0306084B
:103E20001B0406084000060830040608460406087D
:103E30005D0406082DE9F0410446C36908460E46B4
:103E4000984704F1140507464FF01003EFF311886B
:103E500083F31288BFF36F8F28461EF0B5FF68B951
:103E6000194A1A491A4872233FF081F8294619481D
:103E70003FF07DF8722114483FF072F828461EF09A
:103E8000C1FF337843F00103337061683A4620463E
:103E90003FF09EF8606020463FF063F928461EF030
:103EA000A1FF58B9084A0C490948F0233FF05FF8D0
:103EB00029460A483FF05BF8F021DCE788F31188D7
:103EC000BFF36F8FBDE8F081EE0306081B04060800
:103ED0004000060830040608460406085D0406088B
:103EE0002DE9F843044600F114074FF01003EFF3F7
:103EF000118883F31288BFF36F8F38461EF064FF7A
:103F0000054668B9344A3549354872233FF02FF8E1
:103F1000394634483FF02BF872212F483FF020F803
:103F200038461EF06FFF2369A26813F0080F02D114
:103F300063689A4200D9636A9B1A002B3DD0216ABC
:103F400011F8223013F0030001EB820938D0022867
:103F500003D151F82260B60805D1D8071DD4E36912
:103F6000484698470646A168324620463FF030F85A
:103F70003146A06020463FF039F838461EF032FF47
:103F800000BB154A18491648F0233EF0F0FF3946A9
:103F900016483EF0ECFFF021BFE743F0020301F8C2
:103FA00022304846E369A5689847294602462046DC
:103FB0003FF00EF80025A060DFE71D46A946DCE7CC
:103FC0000546FBE788F31188BFF36F8F002D8CD176
:103FD0004846BDE8F88300BFEE0306081B04060848
:103FE0004000060830040608460406085D0406087A
:103FF0002DE9F0410446C36908460D46984704F18F
:10400000140607464FF01003EFF3118883F312886C
:10401000BFF36F8F30461EF0D7FE68B9264A274996
:10402000274872233EF0A3FF314626483EF09FFF0B
:10403000722121483EF094FF30461EF0E3FE2B78BB
:104040006FF300032B7023699B0705D5E268236A91
:1040500003EB82039D4220D12B786FF341032B7039
:10406000D4E90231994204D13A4620463EF0B0FFED
:10407000A060394620463EF0B9FF30461EF0B2FE41
:1040800080B90D4A10490E48F0233EF070FF3146CA
:104090000E483EF06CFFF021CBE72B6867F39F03DF
:1040A0002B60EAE788F31188BFF36F8F04F12C00CF
:1040B000BDE8F0411FF0A4BBEE0306081B04060890
:1040C0004000060830040608460406085D04060899
:1040D00008B504464FF01002EFF3118382F3128803
:1040E000BFF36F8F44F0CDFE204606F029F9034858
:1040F0003EF06AFD06F07CFAFCE700BF7204060899
:10410000064B1A6842F400721A601A6842F4806220
:104110001A60034B034A1A6000207047003C0240BB
:10412000841800200024F400034A536823F002039B
:1041300053600020704700BF002004E02DE9F743E2
:104140000F4606460821C06ADFF850903FF0DDF8C0
:104150003C68241A80463C6004EA0905AC4203D856
:10416000002003B0BDE8F08308236A4621463046AC
:104170003FF03BF80028F4D1694630463FF0CFF8D5
:1041800040B1BDF80230BDF804203C6005EA0905E5
:1041900013441D44A4EB0804E0E700BF0000FFFF48
:1041A0002DE9F04F8FB0044600AF00F114084046EF
:1041B00048F011FFA06A8368DB689847E06280B925
:1041C000A84803685D0709D0A74B7B6302233B63C4
:1041D00007F130024FF482513FF094F86FF015056B
:1041E0004FE0A06A8368DB6898470368013B1F2B98
:1041F00005D99C4803685C07F0D09C4BE5E7A06AB2
:10420000216807F1140244F0AEF828B1954803681C
:104210005907E3D0964BD8E7A5892DB1BB69B5FB0B
:10422000F3F203FB12552DB18E4803685A07D5D01F
:10423000904BCAE7E389012B05D88A4803685B07DE
:10424000CCD08D4BC1E7E36A3D6093F804A04FF0FA
:10425000FF334FF0FF3240461FF02EF8E06A08218E
:104260003FF053F8A9460646E3891FFA85FB5B45F4
:104270000CD8E3894B4527D140461FF0EDF86FF08D
:104280002C0528463C37BD46BDE8F08FA1892B049C
:10429000891B13FA81F152460823204639603EF00B
:1042A000F2FF78B1394620463EF0ADFF09F1010931
:1042B00039680823524620461FFA89F93EF0E3FF89
:1042C0000028D6D00135CFE75B450BD139680823EC
:1042D0005246891B20463EF0D6FF18B93946204683
:1042E0003EF091FF39462046FFF728FF054618B1FA
:1042F00040461FF0B1F8C4E73B6863604FEA1349DA
:104300004FEA0949C4F80890D4E9011399420FD340
:1043100008233A1D20463EF068FF05460028E7D1F5
:104320003B1D13F8012B924545D10135082DF8D1DD
:1043300063681B0C1B04394620463B603EF063FF5C
:10434000A3893968524620463EF09DFF051ECFDB0B
:10435000636800F0A78003EB06094FF6FF7AA38994
:10436000C7F800901FFA89F29B1B9A423DD30022A6
:104370003C48036803F00703002A50D0022B09D9F8
:104380003E4B7B6302233B6307F130024FF48651BF
:104390003EF0B8FF63681B0C1B04394620463B60A7
:1043A0003EF031FF396820463EF092FF0546002D71
:1043B00000F096809CE7391D20463EF0B0FF626811
:1043C00010B9921B62609FE73D89F988E06AC4F8E2
:1043D000089029443EF099FF48449042A060F0D1F3
:1043E000002DEED06FF01C05D3E0082307F10C027E
:1043F000494620463EF0F9FE054600287FF478AF96
:1044000007F10C0120463EF08AFF20B1BB895345DD
:1044100001D13B8A0BB1B144A1E70122A8E7022BED
:1044200009D9174B7B6302233B6307F130024FF43A
:1044300086513EF067FF616820463EF049FF054621
:1044400000287FF455AF63680E4AA18913400B44DE
:10445000A3EB460363601340A36020463FF043F89C
:10446000A4E700BFE01A0020AF040608D104060844
:10447000EE040608060506081A0506083D050608A6
:10448000520506080000FFFF5B1A524620463EF028
:10449000FAFE051EFFF62CAF08D0E26AA368126888
:1044A0001344A360D4E901318B42EDD86168A3893C
:1044B00001EB46029A427FF47AAFDFF8E490A368FA
:1044C00001EA090293423FF472AF20463EF000FF3A
:1044D000054600287FF40CAF636803EA0903A36074
:1044E000A389A288A3EB46039A424ED040461EF011
:1044F000B3FFDFF8B08001232374D8F8003003F055
:104500000703022B3FD96D4688B0E189A3896A462B
:104510002548D3610426C2E9050142F8106F4FF423
:10452000035140463EF0EEFED8F8003003F007039A
:10453000022BAD4627D988B063686A461B49516192
:10454000190C9BB29161D3614FF4035142F8106F83
:1045500040463EF0D7FED8F8003003F00703022BA8
:10456000AD4610D988B0A3686A4611495161190C4B
:104570009BB29161D3614FF4035142F8106F4046F2
:104580003EF0C0FEAD4600257BE620463EF094FF9F
:10459000054640461EF060FF002DAAD071E600BF20
:1045A0000000FFFFE01A00207905060890050608C4
:1045B000A20506082DE9F04F1D46037C8DB0044688
:1045C0008946904693B9694803685B0708D0684BF1
:1045D0000B930AAA02234FF482510A933EF092FEF3
:1045E0006FF00C0630460DB0BDE8F08FC26A0821AE
:1045F00010463EF08AFE2946824610463EF085FE71
:10460000A389A3EB8A03AB420746C0F0AB801DB180
:10461000B8F1000F00F0A6806368039304AA03A911
:104620002046DDF80CB03EF0B2FE06460028D9D197
:10463000BDF810304B4505D06268039B9A42EDD11E
:10464000E5B9CFE704A920463EF069FE0028F3D083
:10465000BDF81200BDF8143075B1AB420ED14FEA6F
:104660001B41090401442B46424620463EF0D8FD3A
:10467000002803DC0646B5E7002BB3D0002F3ED15F
:1046800004F1140301934FF0FF324FF0FF3304F1B4
:1046900014001EF011FEDFF8DCB0E3899E425ED00C
:1046A000D4E90123F9188A422CD3ADF81A3006A8B0
:1046B000FF238DF81E30ADF81890ADF81C503EF079
:1046C000D9FDA1682B46424620463EF0AAFE294667
:1046D0008246E06A3EF019FEA2680244A260BAF186
:1046E000000F07D106A920463EF0D5FE002814BFD2
:1046F0008246AA4601981EF0AFFE564672E757441E
:10470000BFB2BDE7E06A08213EF0FFFD4FF6FF7340
:10471000ADF8183000218DF81E30A389ADF81C10BB
:10472000111802EA0B021A44101A606006A8ADF8CC
:104730001A103EF09FFD06A920463EF0ACFE211D5A
:1047400020463EF060FD636803EA0B03A360204649
:104750003EF0C9FE82460028CCD101369DE76FF0BD
:104760001B0AC7E76FF015063CE700BFE01A002000
:104770009B0406080000FFFF2DE9F0471E4688B0A5
:10478000037CBDF8409004460F4690468BB93148F3
:1047900003685B0708D0304B079306AA02234FF447
:1047A000825106933EF0AEFD6FF00C0008B0BDE8FC
:1047B000F087C06A08213EF0A8FDA389A3EB40035F
:1047C000B34243D3D4F804A0CDF804A000254D454E
:1047D0005146DDF804A009D9636853451ED1BDF8E0
:1047E0000830BB421AD06FF00100DFE702AA01A92E
:1047F00020463EF0CCFD0028D8D1BDF80830BB42A1
:1048000006D102A920463EF08AFD08B10135ADB2BD
:104810006268019B9A42DAD15146E0E7BDF80C305C
:10482000002BE0D0A945DED8BDF80A00090CB34240
:104830004FEA014128BF33460144424620463EF03C
:10484000D4FC0028B2D1BDF80C00AFE76FF0150022
:10485000ACE700BFE01A00209B04060830B5104901
:10486000104889B0002248F0ECFC0F4D0F4900229F
:104870000023CDE9062300240E23CDE90334CDE93E
:1048800001440B4B00944FF4006228461EF034FCA8
:10489000084928461EF03AFA204609B030BD00BF4C
:1048A000F94900080029002040240020403B012055
:1048B000114D0008730C06082DE9F047DFF8588009
:1048C000044607464FF0010914B93846BDE8F087A1
:1048D00094FAA4F5B5FA85F509FA05F32E0108EB6B
:1048E00005156FEA030A24EA03042B7B002BEBD0A7
:1048F00058F806301B694BB94644042273682846B1
:10490000196807EA0A0700F035FCDDE728469847F2
:104910000028D9D1F0E700BFE0B105082DE9F04744
:10492000DFF8B4902D4CA9EB04039F2B80460F4673
:104930000BD92B492B4A2C484FF48D733EF017FBB3
:104940004FF48D7127483EF00BFB28483EF0B5FE32
:10495000064660B300252846BDE8F087237B73B187
:104960002368DB680BB12046984723681B69B3B9FD
:10497000636804221968204600F0FCFB01361034FD
:104980004C4518D91A49174A174840F227133EF0E8
:10499000EEFA18483EF0EBFA40F22711D2E7204633
:1049A00098470028E4D00AFA06F31D43E6E70546D7
:1049B0004FF0010AE4E7D1D3B8F1000FCBD0002DBE
:1049C000C8D02846FFF778FF0546002FF7D0002112
:1049D000642020F063FCF2E7F0B10508E0B10508BF
:1049E000E7050608BA05060840000608F0A70020FB
:1049F0004D0706080B06060801481EF001BF00BF60
:104A0000A01C002008B5034608462BB1044A1360D9
:104A100000F058FF002008BD6FF01500FBE700BF55
:104A2000BC0F002010B5044C237813B903481EF0C6
:104A3000E7FE0123237010BD440D0120A01C0020BF
:104A400010B5044608483EF038FE5CB1BFF35B8FFA
:104A5000064B53E8001F013943E80012002AF8D141
:104A6000BFF35B8F10BD00BFE8A70020ECA70020BC
:104A70000020064BBFF35B8F014653E8000F43E86D
:104A80000012002AF9D1BFF35B8F7047E8A700201E
:104A900070B5FFF7EDFF104C104E0546B44219D922
:104AA0000F49104A10484FF4E9733EF060FA0F487E
:104AB0003EF05DFA0B484FF4E9713EF051FA63683D
:104AC0005B792BB123685B6813B129462046984770
:104AD0001034E3E7F3D370BDE0B10508F0B1050889
:104AE0004D070608BA050608400006080B0606082A
:104AF00010B5044C04492046FFF7AAF8034B1C608C
:104B000010BD00BF881A002048B40508E0A70020A7
:104B1000094A0A4808B500231370094A1360094A74
:104B20004FF47A711360FFF76DFFFFF7E1FFBDE807
:104B3000084000F055BA00BF450D0120D5360408E5
:104B4000E8A70020ECA7002001460022014800232E
:104B5000FFF7B0B8881A00200148FFF7C1B900BFBD
:104B6000881A0020024B01461868FFF741BA00BFBF
:104B7000E0A7002001483EF001BB00BF881A0020DA
:104B80002DE9F0413A4B187800286ED0FFF7E4FF8A
:104B90000446002845D0BFF35B8F364B53E8001F17
:104BA000013943E80012002AF8D1BFF35B8F324D80
:104BB000324E334FB54230D93249334A33484FF43D
:104BC000E3733EF0D4F932483EF0D1F92E484FF469
:104BD000E3713EF0C5F96B685B793BB121784B0717
:104BE00006D52B6821461B68284698471035E1E713
:104BF0002388626813F4E07FC3F38218C1F3C20113
:104C0000EFD0002AEDD0D21B012342F38F022846B9
:104C100000F0FCFA4045E9D3E3E7DCD32046FFF798
:104C2000A1FF1C4B1C4C1B68002B12DD48F0C2FA84
:104C30000A220023FCF712F9D4E90032C01A40F22C
:104C4000E93361EB0201984271F1000101D3FFF7F2
:104C50001FFFD4E9003213F57A7342F10002C4E970
:104C60000032BDE8F041FFF785BFBDE8F08100BF2D
:104C7000440D0120ECA70020E0B10508F0B10508C3
:104C8000D01A00204D070608BA050608400006089D
:104C90000B060608E8A70020F828002070B5154D7F
:104CA000297829BB0120FFF739FE134C134EB4427B
:104CB00017D91349134A144840F289133EF057F9A3
:104CC00012483EF054F90F4840F289113EF048F97D
:104CD00063685B791BB1236820469B689847103452
:104CE000E5E7F5D3FFF74CFF0028FBD101232B703C
:104CF00070BD00BF450D0120E0B10508F0B1050809
:104D00004D070608BA050608400006080B06060807
:104D10002DE9F0472F4B304FFB1A1B090BD12F49C0
:104D20002F4A304840F25D333EF021F940F25D31C8
:104D30002B483EF015F900210846FFF7EFFD044629
:104D400040B34FF4FA784FF0000920F0D9FA264B1F
:104D5000186030B1254B1B68092B02DD24481EF07A
:104D60004FFDDFF88CA0002544B12046FFF7A4FDDD
:104D7000044618B94FF0FF384FF0FF39FFF700FF36
:104D8000064628B95DB942464B4650461EF07CFDAA
:104D90003546E9E74FF0FF384FF0FF39D5E70D4DC5
:104DA00008E0F0D22B689B691BB10022114628460F
:104DB00098471035BD42F4D90E49094A094840F2D6
:104DC00051333EF0D4F80C483EF0D1F840F2513166
:104DD000AEE700BFE0B10508F0B105082A060608F5
:104DE000BA05060840000608E4A70020ECA700204A
:104DF000A01C00204D0706080B06060813B52B481B
:104E00003EF05BFC2A4B1B78002B34D04FF0100394
:104E1000EFF3118483F31288BFF36F8F25481DF0E1
:104E2000D3FF68B9244A2549254872233EF09FF8EC
:104E3000204924483EF09BF872211F483EF090F82C
:104E40001C481DF0DFFFFFF79BFE1A481DF0CAFF4C
:104E500058B9194A1C491A48F0233EF088F81549F8
:104E60001A483EF084F8F021E7E784F31188BFF395
:104E70006F8F02B010BD164B1B68002BF9D050B9D4
:104E800000220023CDE90023124842F210720023D1
:104E900020F0AAFFEDE70928EBD10E4848F0DDF934
:104EA0000D4802B0BDE810401EF0AABCECA70020DF
:104EB000450D0120DCA70020EE0306081B040608B0
:104EC0004000060830040608460406085D0406088B
:104ED000E4A7002000290020A01C002010B5064BEC
:104EE0001B68044698472146A0600448FEF7A2FFCD
:104EF000BDE81040FFF782BFBC0F0020881A0020D9
:104F00000A4608B5014658B90D490E4A0E4840F206
:104F100037333EF02CF840F237310A483EF020F8A3
:104F20004AB90A49074A08484FF44E733EF01FF841
:104F30004FF44E71F1E706483EF02DF9002008BD10
:104F400046060608BA050608400006085E0606087A
:104F5000881A002008B5014658B908490848094A86
:104F600040F245333EF003F8064840F245313DF04B
:104F7000F7FFBDE8084004483EF018B9730606087C
:104F800040000608BA050608881A0020054C0649A4
:104F9000064808B52246ED233DF0E9FFED21204605
:104FA0003DF0DEFFD20606080A07060840000608A4
:104FB000024B0348C01AC008704700BF78B005080C
:104FC000E0B10508044A054B9B1AB1EBD30F34BF7F
:104FD00052F831000020704778B00508E0B10508AC
:104FE0000B480C4B30B51B1A0B4CDB08002104306E
:104FF000994200D130BD10F83120256802F0070237
:1050000025F007052A4344F8042B0131F0E700BFDF
:1050100078B00508E0B10508D01A0020F8B50B4FAC
:105020000B4DED1B0646ED080024AC4203D14FF0BA
:10503000FF342046F8BD57F8340020B13146FBF765
:1050400033F90028F5D00134EFE700BF78B0050848
:10505000E0B105082DE9F84315461E462F4A304BAE
:10506000D21AB5EBD20F88460BD32E492E4A2F48C1
:1050700040F2A7133DF07BFF40F2A7112A483DF014
:105080006FFF08BB2A4FDFF8AC90044609E03846B2
:1050900033462A464146FFF7DDFF844238BF0446C7
:1050A00010374F450CD924491F4A204840F2AD1310
:1050B0003DF05DFF21483DF05AFF40F2AD11DDE7C4
:1050C000E5D32046BDE8F88303EBC5031C7914B192
:1050D000B44228BF34464368194E1A7956F8253031
:1050E00002EB42020721914023EA010304F0070189
:1050F00001FA02F213430021032223FA02F000F026
:105100000700814202F1030238BF01461E2AF4D192
:1051100023F007030B4346F82530D2E7E0B105083A
:1051200078B00508210706088A0606084000060828
:10513000E0B10508F0B10508480706080B060608A7
:10514000D01A0020F8B5094D094BED1A06460F4656
:10515000ED080024AC4200D3F8BD002122B23B464A
:1051600030460134FFF776FFA4B2F3E7E0B105085B
:1051700078B0050838B5114BC31A1B1101330D4621
:1051800004461146DBB248B90D490E480E4ADF23EA
:105190003DF0EDFE0C48DF213DF0E2FE4268137168
:1051A00043689971FFF7CEFF63681D606368012251
:1051B0005A71BDE83840FFF735BC00BFE0B10508C3
:1051C0000A07060840000608D206060810B504467D
:1051D00058B90B490B480C4A40F233133DF0C7FE57
:1051E000094840F233113DF0BBFE43685B7913B1CF
:1051F0000021FFF7A7FF636800225A7110BD00BFAE
:105200000A07060840000608D206060810B513492A
:10521000134C641AB2EBD40F0BD312491248134A41
:105220004FF408733DF0A3FE10484FF408713DF0B1
:1052300097FE73B10E4B53F8223008B9FFF7A6FE64
:105240004268127902EB420223FA02F000F00700F2
:1052500010BD01EBC2010879FAE700BF78B005087C
:10526000E0B1050821070608400006088A0606087E
:10527000D01A00202DE9F04F8FB004AFC1F34A28B7
:10528000B8600D4691467B600C0DB8F1000F6AD0F6
:10529000002607F114034FF0040B4FF00A0AC7F879
:1052A0000C80C7E907667E620193CDF808B0CDF89F
:1052B00000A007F11C03F96832464846FDF736FCAA
:1052C000B0F5006F034620D32F48036813F0060F94
:1052D00017D06C468AB0D9F8041004AB2B4DC3E943
:1052E000055140F2FF71D9611A464FF400711984DB
:1052F000274B42F8103F4FF412513346FFF7BAFFE5
:10530000A5462C37BD46BDE8F08FC0F30A0804F16E
:105310001700184420F0070080083B60FFF714FCDA
:1053200068F35325044630B33B681A4AC7E9083688
:1053300000F1100107F11403F961CDE900A3CDF8E4
:1053400008B0F96807F11C034846FDF7EFFB002899
:1053500011DA11491148124A59233DF008FE10484C
:1053600059213DF0FDFD04F1170020F007008008F1
:10537000FFF7EAFB044668F353257B68B9682A46C1
:1053800020463EF0D8F9BCE7EC1A00207707060863
:10539000040000010B370408E30706084000060874
:1053A000B60706082DE9F04F87B0DDE91269DDE99F
:1053B000105A04460F4693469846AEB11021CDF8D8
:1053C0000090334652460020CDF81490FDF798F92E
:1053D000011E0ADA1F49204A204878233DF0C7FD04
:1053E00078211D483DF0BCFD314605F11700084409
:1053F0001B4B039104F007040BF0070BE40020F0B3
:10540000070003EA412344EA8B1480081C43FFF79A
:105410009BFB44EA0554054690B18EB10399CDF843
:105420000090334652461030FDF76AF9002807DA3B
:105430000849094A094892233DF099FD9221D0E795
:10544000434622463946284607B0BDE8F04F3EF0B5
:1054500072B900BFE2070608B60706084000060852
:1054600000FE0F000EB403B503AB014653F8042B46
:10547000044801933EF085F902B05DF804EB03B0F7
:10548000704700BFA5540008CA0605D48B064CBF60
:1054900002490349FFF7E6BF704700BF7C0D0608CD
:1054A000D60A060838B54B681A68CB689A42054692
:1054B0000C4602D108463EF06BF96368BFF35B8F80
:1054C00053E8002F511C43E800100028F8D1BFF327
:1054D0005B8FA3689D5463681A68E3689A4209D990
:1054E00005490648064A7A233DF041FD04487A21E1
:1054F0003DF036FD002038BD1B08060840000608B8
:10550000EC0706082DE9F04F89B09B46DDE91483CE
:105510009DF84C700593169B179E069204460D4607
:105520000493002F00F09480042F0BD99A499B4AD2
:105530009B4840F2BF133DF01AFD40F2BF1197485F
:105540003DF00EFD06F0080307933EF0DCF806F090
:10555000020A024600284AD092492046FFF782FFFD
:105560008146BAF1000F08D016F0440F41D18E49A0
:105570002A462046FFF776FF814406F0010353B127
:105580008A4B8B4953F827208A4B2046002A08BFB4
:105590001A46FFF767FF06F00803002B55D0864B2D
:1055A000864953F827202046FFF75CFF0546069BF7
:1055B0002BB183491A462046FFF754FF0544BBF13F
:1055C000000F05D07F495A462046FFF74BFF0544A0
:1055D0004D44B8F1000F4CD1049B002B61D1F3076F
:1055E00000F1D38031462046FFF74EFFC7E08146E9
:1055F000B7E7754B18680028BED0744B4FF47A7A21
:105600001B68B5FBF3F54FF46161B5FBF0F300FBEC
:1056100013550AFB05F54FF03C0CB3FBF1F201FB0F
:105620001231B5FBF0FEB1FBFCF300FB1E550CFB89
:1056300013110AFB05F50091B5FBF0F56449CDE9BE
:1056400001E52046FFF70EFF96E706F00805AEE7F6
:10565000BBF1010F08D1B8F1000F1CD1049B002B46
:1056600000F08D8000251CE0B8F1000FF6D05948FD
:1056700012E059485949434622463DF0EAF90028CC
:105680000CDA5749454A464840F219233DF06FFC71
:1056900040F2192153E750483D46EBE7049B002BAD
:1056A0006AD0DFF84091DFF840A1DDF81080314684
:1056B000B8F1100F204628BF4FF01008FFF7E4FEA6
:1056C0004FF0000B5D4543DC059B51461A782046A0
:1056D000FFF7C8FE4FF0010B1BF0070F03D149463F
:1056E0002046FFF7BFFED84539D9059B514613F830
:1056F0000B202046FFF7B6FE0BF1010BBBF1100F9C
:10570000EAD13A4920464FF0000BFFF7ABFE5A466C
:10571000059B9A5C364B995C11F0970F08BF2E22BF
:1057200034492046FFF79EFE0BF1010BBBF1100F31
:105730001AD01BF0070F03D149462046FFF792FE0F
:10574000D8455A46E4D849462046FFF78BFEEBE79A
:1057500049462046FFF786FE0BF1010BB2E72649CA
:105760002046FFF77FFEC7E7059B43440593049B54
:10577000B3EB0803049398D1002F7FF430AF204699
:1057800009B0BDE8F04F3EF003B80A4A0849204688
:10579000FFF768FE26E700BF50080608EC0706087A
:1057A000400006085C080608600806085CB40508A6
:1057B000A01506084B08060870B4050885080608F9
:1057C0008B0806088F080608F8A70020F4A7002019
:1057D00069080608AB370408A55400088337040895
:1057E00094080608355306089D0806082A930608FB
:1057F00069F10508E6FF0508335306082DE9F04175
:105800000F884B688E6886B005460C469046C7F3F5
:1058100082175BB1144A9B1A43F38F01002920DBE6
:105820002078C0F3C200FFF7CDFB03462146608815
:1058300051F8102B0197C2F34A22002A01EB02040F
:10584000C0F30B1008BF00210022CDE90408CDE908
:105850000214009231462846FFF754FE06B0BDE818
:10586000F0810023E2E700BFD01A002073B542F2B6
:105870000F738B4228BF0B4605680F4A044605216B
:1058800068463DF0B0F963680C495B68064604223F
:1058900028463DF069FF63683246694628465B68E2
:1058A0003DF062FF636806495B68172228463DF0B9
:1058B0005BFF02B070BD00BF0B3D0608BB080608C9
:1058C000A3080608074A00210123904206D8064A89
:1058D00001B901231360054B1860704740085B0055
:1058E0000121F2E740420F00F4A70020F8A70020B2
:1058F00000230428CB604B6098BF044B044A98BF38
:1059000053F820308A600B60704700BFCCB50508A3
:105910007CB205080023084A0B60CB604B608A60AC
:10592000064B074AD21AB0EB121F3EBF03EB00131F
:105930009B680B60704700BF50B50508E0B10508D3
:10594000F0B105080023064A10B50C46CB604B6049
:105950008A6001461846FFF735FB206010BD00BF86
:105960007CB2050808B558B907490848084A40F20A
:1059700025133DF0FCFA064840F225113DF0F0FAFF
:10598000436800225A7108BD0A070608400006084D
:10599000D206060808B558B908490948094A4FF41B
:1059A0008C733DF0E4FA07484FF48C713DF0D8FA5F
:1059B00043681960436801225A7108BD0A07060846
:1059C00040000608D20606082DE9F74F04460020DD
:1059D0000D46FFF7EDFA07465DB926492648274AE6
:1059E00040F233133DF0C3FA244840F233113DF046
:1059F000B7FA6B685B7923B9214A032120463EF050
:105A000022FD204B204ADFF884A0082120463EF0EA
:105A10001AFD1F4A082120463EF015FD4FF00008F0
:105A20000FFA88F6BE4208F1010803D3002003B044
:105A3000BDE8F08F3246012300212846FFF7E6FB40
:105A400000233246194681462846FFF7DFFB3146E0
:105A500083460020FFF7B6FA5AF82B2001925AF835
:105A60002920009203460B4A082120463EF0EBFC19
:105A7000D6E700BF0A07060840000608D206060857
:105A8000E0080608F2080608FE080608E0B5050862
:105A90001C090608590906082DE9F84F52F8048C2C
:105AA0001A4D064640469B468A461746FAF788FB3B
:105AB000174B81469D421ED91649174A17482F2376
:105AC0003DF055FA16483DF052FA13482F213DF0AB
