:020000040800F2
:10000000C4680120ED950008C3B00308A595000859
:10001000A5950008A5950008A5950008000000001A
:100020000000000000000000000000001D97000814
:10003000A595000800000000B5960008C5D301088A
:100040003D9900083D9900083D9900083D99000838
:100050003D9900083D9900083D9900083D99000828
:100060003D9900083D9900083D9900083D99000818
:100070003D9900083D9900083D9900083D99000808
:100080003D9900083D9900083D9900083D990008F8
:100090003D9900083D9900083D9900083D990008E8
:1000A0003D9900083D9900083D9900083D990008D8
:1000B0003D9900083D9900083D9900083D990008C8
:1000C0003D9900083D9900083D9900083D990008B8
:1000D0003D9900083D9900083D9900083D990008A8
:1000E0003D9900083D9900083D9900083D99000898
:1000F0003D9900083D9900083D9900083D99000888
:100100003D9900083D9900083D9900083D99000877
:100110003D9900083D9900083D9900083D99000867
:100120003D9900083D9900083D9900083D99000857
:100130003D9900083D9900083D9900083D99000847
:100140003D9900083D9900083D9900083D99000837
:100150003D9900083D9900083D9900083D99000827
:100160003D9900083D9900083D9900083D99000817
:100170003D9900083D9900083D9900083D99000807
:100180003D9900083D9900083D9900083D990008F7
:100190003D9900083D9900083D9900083D990008E7
:0C01A0003D9900083D9900083D990008B9
:0401AC00FFFFFFFF53
:1001B00001F0FF01102A2BDB10F0070F08D010F818
:1001C000013B013A8B422DD010F0070F42B3F6D11C
:1001D000F0B441EA012141EA014122F007047FF035
:1001E00000070023F0E80256083C85EA010586EA8C
:1001F000010685FA47F5A3FA87F586FA47F6A5FAC8
:1002000087F68EB9EED1F0BC01F0FF0102F00702D3
:1002100032B110F8013B013A83EA010313B1F8D17E
:100220000020704701387047002D06BF354603385F
:10023000073815F0010F07D1013015F4807F02BF98
:10024000013015F4C03F0130F0BC0138704700BFE9
:100250007BB972B90029BEBF00204FF0004106E013
:1002600008BF00281CBF6FF000414FF0FF3000F0C6
:1002700057B8ADF1080C6DE904CE002909DB002B5D
:100280001ADB00F04FF8DDF804E0DDE9022304B0EA
:100290007047404261EB4101002B1BDB00F042F84C
:1002A000DDF804E0DDE9022304B0404261EB4101E6
:1002B000524263EB43037047524263EB430300F047
:1002C00031F8DDF804E0DDE9022304B0404261EBDF
:1002D00041017047524263EB430300F023F8DDF81D
:1002E00004E0DDE9022304B0524263EB43037047AC
:1002F00053B94AB9002908BF00281CBF4FF0FF318D
:100300004FF0FF3000F00CB8ADF1080C6DE904CEF1
:1003100000F008F8DDF804E0DDE9022304B07047DE
:10032000704700BF2DE9F04786468C460846089E78
:10033000154674461946002B40F0C2808542B2FA39
:1003400082F245D94AB1C2F1200300FA02FC2EFA2A
:1003500003F3954043EA0C0C94404FEA154EA8B2C3
:10036000BCFBFEF8230C0EFB18CC08FB00F943EA9B
:100370000C43994528D9EB1808F1FF3704D2994569
:1003800002D9A8F102072B44A3EB0903A4B2B3FBE3
:10039000FEFC0EFB1C330CFB00F044EA0344A042BD
:1003A00014D92C190CF1FF3304D2A04202D9ACF1BC
:1003B00002032C44241A43EA07401EB1D440002310
:1003C00034607360BDE8F0874746DDE76346F1E7D8
:1003D00092BB431B01214FEA154EAFB2B3FBFEFCAB
:1003E000200C0EFB1C330CFB07F840EA0343984536
:1003F00062D9EB180CF1FF3004D2984502D9ACF168
:1004000002002B44A3EB0803A4B2B3FBFEFC0EFBDB
:100410001C330CFB07F744EA0344A7424ED92C19BE
:100420000CF1FF3304D2A74202D9ACF102032C44F1
:10043000E41B43EA0040C0E7C2F1200320FA03F1C5
:10044000954090402EFA03F303434FEA154EAFB2A6
:10045000B1FBFEFC0EFB1C10190C0CFB07F841EA6B
:100460000041884504FA02F422D969180CF1FF30E2
:1004700004D2884502D9ACF102002944A1EB08015D
:100480009BB2B1FBFEFC0EFB1C110CFB07F743EA11
:1004900001439F420ED9EB180CF1FF3104D29F4269
:1004A00002D9ACF102012B44DB1B41EA004192E787
:1004B0006046E3E76146F7E76046A3E76346B7E7D0
:1004C000834206D916B9002108467BE7C6E900E059
:1004D000F9E7B3FA83F78FB9834201D3724508D89D
:1004E000BEEB020460EB030301209C461EB9002111
:1004F00068E73846FAE7C6E9004CF8E7C7F1200C90
:10050000BB4022FA0CF41C432EFA0CF120FA0CF337
:10051000B84001434FEA14490EFA07F5B3FBF9F866
:100520001FFA84FE09FB18300B0C08FB0EFA43EA95
:1005300000439A4502FA07F240D9E31808F1FF3068
:1005400004D29A4502D9A8F102002344A3EB0A037E
:1005500089B2B3FBF9F809FB183308FB0EFE41EA38
:1005600003418E452CD9611808F1FF3304D28E4522
:1005700002D9A8F10203214443EA0040A0FB0298FB
:10058000A1EB0E014145CE46434602D306D14D456F
:1005900004D2B9EB020E68EB04030138002EA6D09A
:1005A000B5EB0E0261EB030101FA0CFC22FA07F332
:1005B0004CEA0303F940C6E9003198E74046C5E735
:1005C0004346D9E710F8012B11F8013B012A28BF57
:1005D0009A42F7D0D01A7047034611F8012B03F85E
:1005E000012B002AF9D17047034613F8012B002A8A
:1005F000FBD1181A013870472DE9F04F8FB00B90DE
:100600000C46154647F01DFD0022431880F08580FA
:1006100013444F4FA7FB032C2CF0030202EB9C0268
:100620009B1AC01A61F100024FF0CC3100FB01F1BE
:1006300007FB0211A0FB07031944400840EAC17000
:100640004F088046012C6AD06C6821464148FFF76C
:10065000B9FF28B121464048FFF7B4FF002867D111
:1006600039A3D3E9002340463946FFF7F1FD0C904A
:100670000E4635A3D3E9002340463946FFF7E8FD8F
:1006800015461C46354A002328462146FFF7E0FD63
:1006900007460D91314A002328462146FFF7D8FD31
:1006A00015461C464EF66022002328462146FFF7D9
:1006B000CFFD814688464EF660220023284621461B
:1006C000FFF7C6FD15461C464FF47A7200232846F4
:1006D0002146FFF7BDFD83468A464FF47A72002318
:1006E00028462146FFF7B4FDCDE90823CDF818B020
:1006F000CDF81CA0CDF81090CDF8148002970D9B7A
:1007000003930C9B00930196154A08210B9839F02E
:100710003DFD00200FB0BDE8F08F012278E700908A
:100720000197104A08210B9839F030FD0020F1E7BD
:1007300023460D4A01210B9839F028FD6FF0040083
:10074000E8E700BFAFF30080005C26050000000072
:10075000CDCCCCCC646A0508686A050880EE36000A
:100760008C6A0508506A0508746A050800000000D4
:100770002DE9F0438FB00D4600230C9304210D9119
:1007800016680793089309930A930CA928460FF05B
:100790008DFD002872D00746042128463DF091F9CE
:1007A00028463DF0BCFA032825D90BA928463DF080
:1007B0004EFA002865D11CF057FF0B9BC31A0B9310
:1007C000334AA2FB0312920E324901FB02F4324873
:1007D00000FB12302CA3D3E90023A0FB0101FFF79B
:1007E00087FD23182D4AA2FB03239B0C2C4A1021C2
:1007F00007A837F02DFB2B4BD3F86080B3881C0281
:1008000044EA1324A4B2EB8EE41A043C06F1080176
:1008100002200EF0B5FA814606F1180102200EF012
:10082000AFFA7A88130243EA12239BB2F17995F862
:100830004620FF2A1BD0AE3A07AD059504920391DE
:1008400002930190CDF800902346174A08214046B4
:1008500039F09CFC7A88130243EA12239BB2114AB6
:10086000526E934205D000200FB0BDE8F0830F4ACE
:10087000E2E70C4815F0D2FC0020F5E76FF0040029
:10088000F2E76FF00400EFE7007A030A00000000CF
:1008900029D9426600CA9A3B007A030A83DE1B43C9
:1008A0006CAE05080826002078AE05080080FFFF22
:1008B000F8B586684768046912F0FC6F33D11346B7
:1008C00002F03002302A3ED0504A1A40504DAA421F
:1008D00049D003F00602042A55D013F4402202D076
:1008E00013F4003F5CD0B2F5402F69D013F4801FA1
:1008F00005D022B113F0010F01D083F4402323F47B
:1009000080123D684FF0010C0CFA01FC15EA0C0F47
:1009100066D013F0010F73D023684CEA0303236001
:1009200033689847F8BD3B4C4FF4737322463A49FD
:100930003A4838F065F83A4838F062F84FF4737185
:10094000204638F056F8334C40F2CF332246354932
:10095000324838F055F8344838F052F840F2CF3188
:10096000204638F046F82B4C40F2D33322462F492C
:100970002A4838F045F82E4838F042F840F2D33192
:10098000204638F036F8234C40F2D6332246294927
:10099000224838F035F840F2D631204638F029F8B0
:1009A0001C4C40F2D933224623491C4838F028F821
:1009B000224838F025F840F2D931204638F019F8AD
:1009C000144C40F2DD3322461D49144838F018F823
:1009D0001C4838F015F840F2DD31204638F009F8AF
:1009E0000C4C40F2E933224617490C4838F008F81D
:1009F000164838F005F840F2E931204637F0F9FFA3
:100A0000236823EA0C0323608AE700BF0200030087
:100A100002000100185005084C500508AC500508AC
:100A2000CC500508F05005082C5105086C510508FC
:100A3000B4510508045205083852050880520508CB
:100A4000BC520508005305082C5305086C530508D3
:100A500010B543681C68012303FA01F10C4204D06D
:100A60009AB18368DB68984710BD0A4C40F22B634B
:100A700022460949094837F0C3FF094837F0C0FF4B
:100A800040F22B61204637F0B4FF83681B6998471A
:100A9000EAE700BF185005082C530508AC500508BC
:100AA0006C53050838B5436805691C6801238B4001
:100AB0001C4208D02C68234202D0B2FA82F25209BA
:100AC000FFF7C6FF38BD084C40F254632246074981
:100AD000074837F095FF074837F092FF40F254611E
:100AE000204637F086FF00BF185005082C53050834
:100AF000AC5005086C53050810B588B04FF4D01100
:100B0000204837F02CFD204B1B6803F00703022B15
:100B100013D81E4C01220D212046FFF7C3FF4FF4CE
:100B2000FA7037F027FD00220D212046FFF7BAFFAB
:100B30004FF4FA7037F01EFDEBE7154B07930223D5
:100B40008DF8043000238DF805308DF806308DF8CF
:100B50000730019A0692194663F3000163F34101DD
:100B600063F3820163F3C501032262F38811082253
:100B700062F3532163F31F5106AA034803F072FA8C
:100B8000C7E700BF98530508FC12002094490508E8
:100B900080530508C0434FF0000C944519D230B57E
:100BA00011F80C3083EA000E0EF00F0E0A4C54F8C8
:100BB0002E5085EA101080EA131303F00F0354F847
:100BC000233083EA10100CF1010C9445E8D3C043A4
:100BD00030BDC043704700BFB05305084FF0000C54
:100BE000944515D210B511F80C3058400309094C42
:100BF000E35C83EA00135FFA83FEC3F30313E05C54
:100C000080EA0E10C0B20CF1010C9445EBD310BD7C
:100C1000704700BFF05305082DE9F04383B000AFE3
:100C200006468846154600F039F90446C3681BB9E4
:100C300043691A78002A56D10023E360616858F8A6
:100C400021306361B14233DA5A1C62611A782D2A6D
:100C50002ED19A1C62615A78A2602D2A30D04AB9EE
:100C60007D4B63612D21284653F0D6FC002834D0FB
:100C70002D23A360D4F808904946284653F0CCFCB5
:100C8000B9F13A0F34D0002832D043783A2B7FD0D4
:100C90000023236163691B7813B9636801336360C0
:100CA000204600F0E1F8A0680C37BD46BDE8F083AF
:100CB000694B6361204600F0D7F84FF0FF30F3E74F
:100CC0009B78002BCBD101316160634B636120467F
:100CD00000F0CAF84FF0FF30E6E7204600F0C4F815
:100CE0004FF0FF30E0E75A1C42611B788360C1E798
:100CF00063691B7813B96368013363602368002B51
:100D00003BD02B783A2B38D0544B1B6813F0070F8D
:100D100033D06D4688B06B4613F1100232D00C21EF
:100D200042B10846042901DD4D4E5E61082801DD0F
:100D3000C3F818900B2928DD0C263AB1032139712C
:100D400000217971B971F9717868186100216FF328
:100D500000016FF341016FF382016FF3C5010123BD
:100D600063F38811C6F30A0363F353216FF31F5132
:100D700000233A4803F076F9AD46204600F074F8B7
:100D80003F2091E76FF00041CAE76FF01B06D4E700
:100D900063691A7832B123612F4B63616368013351
:100DA00063607DE76368013363609E4203DD58F84A
:100DB00023302361F0E7284B63612B783A2B3FD037
:100DC0002368C3B3254B1B6813F0070F33D06D4660
:100DD00088B06B4613F1100237D00C2142B108469F
:100DE000042901DD1F4E5E61082801DDC3F818905B
:100DF0000B292DDD0C263AB10321397100217971BF
:100E0000B971F9717868186100216FF300016FF30F
:100E100041016FF382016FF3C501012363F3881170
:100E2000C6F30A0363F353216FF31F5100230B48EA
:100E300003F018F9AD46204600F016F83F2033E7DE
:100E4000204600F011F83A202EE76FF00041C5E788
:100E50006FF01B06CFE700BF886B0508EC1200207F
:100E600000540508185405080268074B1A604268C8
:100E7000064B1A608268064B1A60C268054B1A60FE
:100E80000269054B1A6070471C09002018090020F0
:100E9000F0780020EC780020E878002000487047C7
:100EA0000009002010B5044C02E054F8043B9847B8
:100EB000024B9C42F9D310BD904D0508904D05089A
:100EC000064B1B684BB110B55C1E044A52F8233028
:100ED00098472346002CF7D110BD7047844D050874
:100EE000F8B540B1064603784578847804EB83046E
:100EF0000444002711E00B4CC62322460A490B4844
:100F000037F07EFDC621204637F073FD01342046C0
:100F1000FFF76AFB013004440137AF42F6D3A01B50
:100F2000F8BD00BF4454050874540508AC500508CA
:100F30002DE9F04F91B005920393134602F004029D
:100F40000092C3F3C20210F00303019340F07082D9
:100F500080468A460132041D002850D0B8F1000FA7
:100F600005D0A4EB08030433534500F26482039BCD
:100F70005D1E019B04930693029300264FF0FF3BF6
:100F80000427B946B8F1000F01D0039B2360531E1C
:100F90000793002A40F36181059B13F0020229D0D8
:100FA0000120A4EB08018B081AB1B1F5007F80F095
:100FB0006881029A0F2A00F27481B8F1000F00F0E4
:100FC0008481DBB2029901F140026A4402F8103CCC
:100FD00002F820BC002800F0748163F07F0301F167
:100FE00040026A4402F8103C049B01330493029BC4
:100FF0000133029304340022CC4640463DE001F028
:10100000070A5444CAF1080AA8E7002634E000267B
:1010100032E0002630E00827BC462DE025292BD100
:101020000BF1010B01260427BC4625E04729EED829
:101030002A2914D32A39C9B24FF0010E0EFA01F150
:101040004FF6DA7E11EA0E0F16D111F0625F40F012
:10105000C28011F0010F40F08D8000260CE02529A0
:1010600003D10BF1FF3B002606E001D9002603E087
:10107000202901D02329CCD11D466B1C6978002979
:1010800000F04E81002EC9D07A29BED84C29CDD38C
:101090004C392E2962D80FF2080E5EF821F000BFFD
:1010A000791000085D1100085D1100085D1100084D
:1010B0005D1100085D1100085D1100085D11000858
:1010C0005D1100085D1100085D1100085D11000848
:1010D0006D1100085D1100085D1100085D11000828
:1010E0005D1100085D1100085D1100085D11000828
:1010F0005D110008D71100085D1100086D1100088E
:101100006D110008D7110008D7110008D711000889
:10111000791000086D110008171000085D11000813
:10112000791000085D110008331200086D110008E5
:10113000331200085D1100085D1100083B12000821
:10114000671100086D1100085D1100085D110008AD
:101150006D1100085D1100086111000800268BE781
:101160000427BC4688E70427BC4685E729786C2914
:1011700025D000263C44013CB4FBF7F407FB04F403
:10118000254620B1211A61448A45C0F05781002AC2
:1011900058D1BCF1040F00F0A980BCF1080F40F059
:1011A000AD801A99073121F0070101F108051A9560
:1011B000D1E9008908B1C4E9008908345CE713F873
:1011C000021C6C2903D000260427BC46D2E7002667
:1011D0000827BC46CEE729784C291AD01A9907313E
:1011E00021F0070101F108061A96D1E900670734DA
:1011F00024F0070440B1211A0831514513D8297849
:101200004C2913D0C4E90067083400260827BC46DF
:1012100032E71A99073121F0070101F108061A9601
:10122000D1E90067E3E76FF01B00FEE0C4E9006767
:10123000EAE700260427BC469CE73246002604273E
:10124000BC4697E72C46E14680461A9A111D1A9132
:1012500012680392079A1D4694E67D4B039A9A42C0
:1012600004D37C4B9A420AD3002300E00023002BD6
:101270007FF492AE059B03F00202002091E6012369
:10128000F5E7754C40F27B2322467449744837F0E9
:10129000B7FB744837F0B4FB40F27B21204637F0AF
:1012A000A8FB6D4C4FF4207322466C496C4837F014
:1012B000A7FB6D4837F0A4FB4FF42071204637F0B0
:1012C00098FB069B0133069391E610B10AF1010ADF
:1012D0008DE6009B13B10AF1020A88E60398FFF736
:1012E00083F900EB0A0303F1020A80E61A990D1D47
:1012F0001A95096800B121600434BDE6E146564CF8
:1013000040F2C52322465549554837F079FB4946F6
:10131000564837F075FB40F2C521204637F069FB8F
:101320008046231AB3F5806F13D210B300220260F7
:101330009B080370009B03B3069BC370049B88F853
:1013400002309BBB019DDDF80890DDF810B0039FD3
:101350004DE0414C40F2D12322464049404837F00D
:101360004FFB434837F04CFB40F2D121204637F089
:1013700040FB5344A3F1080057E0069B4370DDE7B0
:1013800001339842DED903F140026A4412F8101C7E
:1013900012F9102C002AF3DA01F07F01A4EB080205
:1013A000013292454DD304F8011BE9E7019B0298F5
:1013B000E7E7009B43B305F140036B4413F8203C7F
:1013C00004F8013B019EA4EB0803334401339A4522
:1013D0003AD305F140036B4413F8103C04F8013B89
:1013E00032463946204653F09AF934440135A9452E
:1013F00019D9BBF1000FDCD005F140036B4413F9A0
:10140000103C002BD5DAF1E705F140036B4413F8EB
:10141000103C58F82370002248F823203846FFF784
:10142000E3F8461CCFE7A4EB080011B0BDE8F08F4D
:101430006FF00D00F9E76FF01B00F6E76FF01B008F
:10144000F3E76FF01B00F0E76FF01B00EDE700BF64
:10145000A44705088C4C0608445405087C5205082E
:10146000AC5005088C540508B0540508CC54050848
:10147000E45405082DE9F04F97B000AF39617A6167
:101480007862B0B19B46D7F88030C3F3C003FB61EC
:101490003B69DBB17B6A93F80280C7F80C80B8F136
:1014A000000F18D0D7F8803013F0010F1FD10023A0
:1014B00012E0AE4C4FF465732246AD49AD4837F0AB
:1014C0009FFA4FF46571204637F093FA786AFFF778
:1014D00007FD3861DEE700237A6AD2783A6242B1CA
:1014E000D7F8802012F0020F22D1002202E001235F
:1014F000F2E7002202B9EBB1796A0D78AA00BA606E
:101500000A464968B96102EB85057A69FAB1002B90
:1015100040F01381FB68002B00F01E81D7F880306B
:1015200013F0040F40F01C8100208246804608E141
:101530000122DFE77B691BB15A463969786A98470F
:10154000D7F8109048465C37BD46BDE8F08FD7F815
:10155000109013BBFB68B3B3D7F8802012F0040BD4
:1015600026D01D444FF0000B22E0814401350134A8
:1015700044451CD22A7800235AF82220194678695B
:1015800037F03EF8002EF0D0D7F888309B45ECD2EB
:1015900026F81B000BF1010BE7E70024A346D7F860
:1015A0000C803E61D7F824A0D7F88460E0E73E695C
:1015B000D7F8803003F00503FB604FF0000AC7F84E
:1015C00010B0B346A4E0D7F80CB0F1E70025FB69F2
:1015D0007BB9002D7ED0D7F8803013F0010F7ED17B
:1015E000FB68002B74D10223A9EB03098DE00125D0
:1015F000EDE74146B86937F049F80028E9D05E4B7D
:101600001B6813F0060F40D06D46002387F82C307E
:10161000022387F82D308AB0694611F1100237D0C5
:1016200012261AB1042E01DD544B4B61002387F8BA
:101630002830022387F829306ABB112E45DD12239A
:1016400062B1042087F82C00002087F82D0087F86D
:101650002E00012087F82F00F86A08616FF3000B55
:101660006FF3410B6FF3820B6FF3C50B022161F334
:10167000881BC3F30A0363F3532B6FF31F5B002331
:1016800059463D4802F0EEFCAD46A9F102093CE0A6
:101690006FF00046C5E73346082E01DDB869886162
:1016A0000C2B01DDC1F81C8001F12003002009E0B2
:1016B00000F1300C07F1280EF4441CF830CC03F88C
:1016C00001CB01300128F3D9B7E76FF01B03B7E76F
:1016D000012389E7D7F8803013F0020F15D00023DB
:1016E00032461946786936F08BFFD7F8843053B10B
:1016F0003B69D7F88820934205D2D7F8842022F896
:10170000130001333B61013881440AF1010A254687
:101710003B6A9A45BFF416AF2C4614F8028B6B78DF
:101720007A6A52F82360164B9E42FFF44FAF154B76
:101730009E42FFF45CAF002549E707F144004FF0FB
:10174000000A18B1FA68294652F0E9FFFB681D4407
:101750000026C7F804B032E0002082468046F0E759
:10176000C24607F134004FF00008EAE74454050888
:10177000FC540508AC500508D8120020185505087F
:10178000A44705088C4C06080025FB696BBB002D9F
:1017900061D0D7F8803013F0010F3AD0B8F10F0FB5
:1017A0002AD808F1010308F1300207F1280102EB01
:1017B000010808F8149C5FFA83F8013625463B6A55
:1017C0009E4280F08E802C4614F802BB95F8019062
:1017D0007B6A53F82930874A9342D5D3864A93428D
:1017E00001D30025D1E70125CFE75946B86936F086
:1017F0004DFF0028CBD0E0E7804C40F23E4322462C
:101800007F49804837F0FCF840F23E41204637F0EF
:10181000F0F8D7F8803013F0040FCED0BAF10F0FE4
:101820000CD80AF101030AF1300207F1280102EB9A
:10183000010A0AF8249C5FFA83FABEE76F4C40F273
:101840004143224670496F4837F0DAF840F241418F
:10185000204637F0CEF8D7F8803013F0020F1CD0B6
:10186000B8F10F0F0CD808F1010308F1300207F1AD
:10187000280102EB010808F8149C5FFA83F89CE742
:101880005E4C4FF4896322465D495E4837F0B8F8F4
:101890004FF48961204637F0ACF8BAF10F0F13D836
:1018A0000AF101030AF1300207F128010A4402F8A3
:1018B00024BC0AF1020A5FFA8AFA07F1580252FAC6
:1018C00083F303F8249C78E74C4C40F24B432246C8
:1018D0004D494C4837F094F840F24B41204637F0E0
:1018E00088F8D7F804B07A6A137887F854305378B8
:1018F000434487F85530D7F8803013F0020F0DD1EC
:10190000CAF3470387F85730D7F8803013F0010F38
:1019100006D113F0040F35D1002302E00023F1E7D4
:10192000002387F856307C6A20683863786D206021
:101930005A46B96820467E69B047B0F10009FFF603
:1019400001AE386B20605A46514607F13400B0476B
:10195000002849DB09EB0004FA68BB681A443B6ABB
:1019600002EB43015A463B69591A2846B047B0F189
:101970000009FFF6E7AD4C440025C7F82080D7F8F2
:10198000849015E05346CCE74FF0000A5A460121F7
:1019900007F12C00B047002828DB04445346424698
:1019A0005946304636F02CFE002821DB0444013530
:1019B0003B6A9D4211D205F1300307F1280213441E
:1019C00013F8143C87F82C307A6A52F82380B9F166
:1019D000000FD9D039F815A0D8E75A46002108469B
:1019E0007B699847A146ADE58146ABE58146A9E50F
:1019F0008146A7E5A44705088C4C06084454050811
:101A0000BC550508AC500508DC550508014B1860AD
:101A1000704700BF2009002080B505460E461746D6
:101A2000984627F0EDFC034652F0B2FE0446DFF87C
:101A3000189049F80030424639463046A84754F8D5
:101A4000090007F001FE00BF0800000010B584681F
:101A50008C420AD3C9001FFA83FCB3F5803F12D22F
:101A600001EB420220F802C010BD0E4C7B2322463F
:101A70000D490E4836F0C4FF0D4836F0C1FF7B21FA
:101A8000204636F0B6FF074C842322460949074812
:101A900036F0B6FF064836F0B3FF8421204636F014
:101AA000A8FF00BF1056050834560508AC500508BD
:101AB000485605084C56050870B5044600EBC103AE
:101AC0005B8813F0010F18D1C800131D54F82330A0
:101AD0000BB3E36823FA02F515F0010F29D025189E
:101AE000ED88A94233D10121914023EA0103E3604B
:101AF0000432002344F8223070BD1E4C26232246B7
:101B00001D491E4836F07CFF1D4836F079FF26211E
:101B1000204636F06EFF174C2723224619491748F6
:101B200036F06EFF164836F06BFF2721204636F060
:101B300060FF104C282322461349104836F060FFFE
:101B40000F4836F05DFF2821204636F052FF204432
:101B50008688043244F822502B4603223146204620
:101B6000FFF774FF3346022229462046FFF76EFF37
:101B7000C2E700BF6456050888560508AC50050842
:101B8000485605089C560508AC560508F8B50446A5
:101B90000D46131D50F8236036BBC36823FA02F1CB
:101BA00011F0010F12D1012191400B43C3600432A7
:101BB00040F822502B4602222946FFF747FF2B46CA
:101BC000032229462046FFF741FFF8BD1D4C49235B
:101BD00022461D491D4836F013FF1D4836F010FF00
:101BE0004921204636F005FFC368D34013F0010FAA
:101BF00019D000EBC6039F883B460222FFF726FF61
:101C00003346032229462046FFF720FF2B460322B6
:101C100039462046FFF71AFF2B460222314620465E
:101C2000FFF714FFD1E7074C512322460949074823
:101C300036F0E6FE064836F0E3FE5121204636F047
:101C4000D8FE00BF64560508D0560508AC500508FC
:101C500048560508AC560508F8B58A4226D9054607
:101C60001446571A00EBC1035B885A08B7EB530FB1
:101C70002AD20E1B16447B000122FFF7E7FE7300F9
:101C8000012221462846FFF7E1FE3B46002221467D
:101C90002846FFF7DBFE05EBC403598833460022D4
:101CA00004EB51012846FFF7D1FEF8BD0D4C6F2320
:101CB00022460D490D4836F0A3FE0D4836F0A0FE31
:101CC0006F21204636F095FE064C702322460949C6
:101CD000064836F095FE064836F092FE7021204602
:101CE00036F087FE64560508FC560508AC5005081A
:101CF0004856050804570508C9000431014410F08E
:101D0000030F01D10846704710B5074C1D2322462A
:101D10000649074836F074FE064836F071FE1D216C
:101D2000204636F066FE00BF6456050820570508B9
:101D3000AC50050848560508F8B50E46B1FA81F3CF
:101D40008168B1FA81F18B4226DB0446C3F11F02A0
:101D5000111D50F82170AFB10320111D54F821500E
:101D6000E90004EBC50CBCF802C0B6EB5C0F21D94E
:101D70002144C988151D44F8251001B3013801D04C
:101D80008F42EAD1E568C3F12002012393405B4210
:101D90001D4022D12846F8BD204CD8232246204998
:101DA000204836F02DFE204836F02AFED821204665
:101DB00036F01FFE29462046FFF77EFEEAE7174C65
:101DC000F22322461949174836F01AFE164836F013
:101DD00017FEF221204636F00CFE95FAA5F2B2FA73
:101DE00082F2131D54F8235029462046FFF764FE63
:101DF00004EBC5046388B6EB530FCBD9074C4FF403
:101E0000807322460A49074836F0FAFD064836F044
:101E1000F7FD4FF48071204636F0EBFD645605085F
:101E20004C570508AC500508485605089C5605084F
:101E30007057050800293BD038B50D460468204688
:101E400036F0C5FC0146C20004EBC0035B8813F00A
:101E5000010F0FD000EB530334F833001B1A9942E3
:101E600017D1A3185A8822F001025A80204636F072
:101E7000E3FC38BD0F4CAF2322460F490F4836F024
:101E8000BFFD29460E4836F0BBFDAF21204636F097
:101E9000B0FD084CB72322460A49084836F0B0FD89
:101EA0002946094836F0ACFDB721204636F0A1FDA1
:101EB000704700BF6456050888570508AC500508F0
:101EC0009C570508D4570508FC5705082DE9F0472D
:101ED000154606684B420B4001F1FF3A1AEA010A27
:101EE00004D0032B53D854469A4603E00C460429E9
:101EF00048D90423621E22424DD1002D7FD0B26802
:101F0000B2EBD50F7ED96719FF1A0B37FF08394698
:101F10003046FFF711FF8046002876D00146304654
:101F2000FFF7EAFE00EB0A09A14409F1FF39B9FB0A
:101F3000F4F904FB09F9A9EB0A0909EB05040734D4
:101F400024F007044946304636F041FC0546A41B00
:101F5000E41080452FD8A0422DD24744A7422AD36F
:101F6000804538D3EF0006EBC5035B8805EB5303D0
:101F70009C423AD33E44738843F001037380484641
:101F8000BDE8F087114636F088FC8146F7E75446F5
:101F90009A460423AEE71E4C4FF4A27322461D4915
:101FA0001D4836F02DFD1D4836F02AFD4FF4A27174
:101FB000204636F01EFD164C4FF4AF7322461849EA
:101FC000154836F01DFD174836F01AFD4FF4AF7175
:101FD000204636F00EFD024641463046FFF73CFEF5
:101FE0004146304636F01CFCBCE7224629463046C6
:101FF000FFF732FE2146304636F012FCBAE74FF0CA
:102000000009BCE74FF00009B9E74FF00009B6E757
:102010006456050838580508AC500508545805089A
:1020200074580508485605082DE9F041B2F5802F8F
:1020300020D2042A2ED9043ACC1D24F007041144DE
:1020400021F007010E1BF7088C4233D2172E41D91D
:102050000460A7600023E360B7FA87F3C3F12000B0
:10206000C3F12405AD000735ED086B1CBB4241D818
:10207000002354E0464C40F2EB13224645494648C3
:1020800036F0BEFC454836F0BBFC40F2EB11204672
:1020900036F0AFFC3E4C4FF4F973224640493E48BF
:1020A00036F0AEFC3F4836F0ABFC4FF4F9712046F9
:1020B00036F09FFC364C4FF4FD7322463A493648C1
:1020C00036F09EFC394836F09BFC4FF4FD712046FB
:1020D00036F08FFC2E4C40F2FB13224634492E483A
:1020E00036F08EFC2F4836F08BFC40F2FB11204678
:1020F00036F07FFC264C4FF4037322462D492648C8
:1021000036F07EFC274836F07BFC4FF40371204606
:1021100036F06FFC1A1D002144F82210013383426F
:10212000F8DB6B00012200212046FFF78FFC002323
:102130001A4619462046FFF789FC638843F00103DD
:102140006380A7EB05084FEA480301222946204691
:10215000FFF77CFC2B46002229462046FFF776FC41
:102160000023012239462046FFF770FC4346002237
:1021700039462046FFF76AFC2644738843F0010382
:1021800073802946204636F04BFBBDE8F08100BF46
:1021900064560508A4580508AC500508BC58050845
:1021A000D4580508F8580508145905084856050874
:1021B000205905084C5905082DE9F04182B08046A8
:1021C0000E46154600272A4601A9404636F097FBE1
:1021D000044602463146019852F0A1FA27442644AB
:1021E0002D1B01D0002CEED13946404636F0A8FB1D
:1021F00018B9384602B0BDE8F081054C49232246A3
:102200000449054836F0FCFB4921204636F0F1FB35
:1022100078590508A0590508AC5005082DE9F0418A
:1022200082B080460E461546002709E00246019915
:10223000304652F074FA264427442D1B09D044B18D
:102240002A4601A9404636F099FB0446002EEDD1FE
:10225000F2E73946404636F0AEFB18B9384602B0D0
:10226000BDE8F081054C8E2322460549054836F02D
:10227000C7FB8E21204636F0BCFB00BF785905080D
:10228000A0590508AC50050838B504460D46202273
:10229000002152F06CFAEB68E361AB68A3612B6834
:1022A00023626B6863620022A2622A6922612BB1F9
:1022B000591E0B4202D142F00102226104F12C00AE
:1022C0000122002145F060FD00B938BD054C2E23E8
:1022D00022460549054836F093FB2E21204636F06C
:1022E00088FB00BFAC590508A0590508AC5005088B
:1022F0002DE9F04F89B09946002307930593436A6F
:102300008B42C0F0EF8083468A4690460026012724
:10231000039662E0764C722322467649764836F080
:102320006FFB2946754836F06BFB7221204636F06C
:1023300060FB3146584636F097FC0023059363E076
:10234000DBF82030DBF8002003EB8201039113F867
:1023500022106FF3000103F82210C9B26FF341019C
:1023600003F82210DBF800305344DBF8102012F0A1
:10237000010F05D1DBF824108B4205D35B1A03E073
:10238000DBF8241001390B40CBF80030DBF80C10DF
:10239000994201D0002709E042F00802CBF8102052
:1023A000002703E0584636F097FB2746019C284655
:1023B00024F02CFB002800F0868084F31188BFF302
:1023C0006F8F079931B1DBF818300BB15846984739
:1023D00000230793002F00F087800BF114054FF0C6
:1023E0001003EFF3118483F31288BFF36F8F02940D
:1023F000284624F0FBFA00288CD0284624F016FB4F
:102400000194059A002A94D106A9584636F006FB95
:1024100004460699514593D20028C3D159EA0803CE
:102420000BD1002FC2D0DBF8006005AB07AA0699DC
:10243000584636F084FB0746B8E745F0E7FB00282E
:10244000EFD1284624F0E2FAF8B1029B83F3118819
:10245000BFF36F8F0BF12C0042464B4625F04EF830
:1024600007464FF01003EFF3118483F31288BFF394
:102470006F8F284624F0BAFAB0B1284624F0D6FA75
:102480000194B7FA87F77F0990E7194CF0232246A9
:102490001B49194836F0B4FA29461A4836F0B0FA02
:1024A000F021204636F0A5FA114C7223224611493C
:1024B000114836F0A5FA2946104836F0A1FA7221E3
:1024C000204636F096FA0A4CF02322460C490A4878
:1024D00036F096FA29460B4836F092FAF02120465B
:1024E00036F087FA00230393039809B0BDE8F08F14
:1024F000D4590508045A0508AC5005081C5A0508AB
:10250000345A05084C5A05082DE9F04104460D4699
:10251000C36908469847804604F114064FF010033B
:10252000EFF3118783F31288BFF36F8F304624F0E7
:102530005DFA90B1304624F079FA2B7843F001032C
:102540002B70636803EB0800236913F0010F13D1AC
:10255000636A984213D3C01A11E0174C72232246C3
:102560001649174836F04CFA3146164836F048FA04
:102570007221204636F03DFA636A013B18406060E4
:10258000204636F083FA304624F040FA28B187F32B
:102590001188BFF36F8FBDE8F081074CF02322460E
:1025A0000949074836F02CFA3146084836F028FA2F
:1025B000F021204636F01DFAD4590508045A0508C2
:1025C000AC5005081C5A0508345A05084C5A050831
:1025D0002DE9F04182B0044642E04A4C7223224683
:1025E00049494A4836F00CFA2946494836F008FA73
:1025F0007221204636F0FDF953F8220080085ED1A2
:1026000054E0626A013A1340A360204636F051FA62
:102610001BE013F8221041F0020103F82210A76812
:10262000E369404698473844236913F0010F04D109
:10263000636A984204D3C01A02E0636A013B1840FF
:10264000A060002701E00027B846284624F0DEF904
:10265000002843D086F31188BFF36F8F002F4CD032
:1026600004F114054FF01003EFF3118683F3128881
:10267000BFF36F8F284624F0B9F907460028ACD085
:10268000284624F0D3F901A9204636F0DBF9236A65
:10269000A26803EB820801990029D4D013F8221014
:1026A00011F0030117D00229A6D0002013F8221040
:1026B00011F0010FADD110B9E36940469847A36806
:1026C00001460344226912F0010F9AD1626A9342D3
:1026D0009AD39B1A98E70027B846B6E7094CF0232F
:1026E00022460C49094836F08BF929460A4836F04B
:1026F00087F9F021204636F07CF9404602B0BDE86B
:10270000F08100BFD4590508045A0508AC500508EB
:102710001C5A0508345A05084C5A05082DE9F041A1
:1027200004460D46C36908469847064604F1140757
:102730004FF01003EFF3118883F31288BFF36F8F0C
:10274000384624F053F9A8B1384624F06FF92B78B5
:102750006FF300032B70236913F0020F19D0236A63
:10276000E26803EB8203AB4213D02B6866F39F034E
:102770002B601AE0234C722322462349234836F06B
:102780003FF93946224836F03BF97221204636F0AF
:1027900030F92B786FF341032B70E268A3689A42FB
:1027A00011D03146204636F084F9384624F02EF90F
:1027B000C0B188F31188BFF36F8F04F12C0024F0AF
:1027C00055FEBDE8F0813344226912F0010F04D1B7
:1027D000626A934204D39B1A02E0626A013A134090
:1027E000A360DEE7074CF02322460A49074836F08B
:1027F00007F93946084836F003F9F021204636F04B
:10280000F8F800BFD4590508045A0508AC5005086B
:102810001C5A0508345A05084C5A050808B50446E0
:102820004FF01002EFF3118382F31288BFF36F8F22
:102830003FF0D8FD204638F071FC034835F0B9FF71
:1028400007F06EF8FCE700BF645A0508064B1A68EB
:1028500042F400721A601A6842F480621A60034BF4
:10286000034A1A6000207047003C02401412002006
:102870000024F40008B545F0E4FB0022431819D207
:1028800013440D4AA2FB03CE2EF0030C0CEB9E0C5E
:10289000A3EB0C03C01A61F100014FF0CC3300FB35
:1028A00003F302FB0133A0FB02021344400840EA99
:1028B000C37008BD0122E3E7CDCCCCCC034A5368FA
:1028C00023F0020353600020704700BF002004E0A3
:1028D0002DE9F04393B0044600230393C36A1E79A5
:1028E00000F114094FF0FF324FF0FF33484624F057
:1028F000FBFAE36A1B68DAB2012A06D9D71D5342F4
:102900001F404FF00008454603E00827F9E701356E
:10291000ADB2E389AB421CD9A189C91B89B201EBD5
:102920000541039108233246204636F064FA002818
:10293000EDD008F101081FFA88F803A9204636F007
:1029400021FA082332460399204636F054FA00282B
:10295000DDD1E389434500F04381AB420DD003A9AB
:10296000204636F0B7FA0546002840F01E81039B4A
:1029700063601B0C1B04A36010E00823324603991C
:10298000C91B204636F037FA0028E8D103A92046B3
:1029900036F0F8F9E3E76368DB1B63606168A368FE
:1029A00099422ED304AA204636F0DBF905460028CA
:1029B00040F0F480314604A836F0D8F908B304A9F1
:1029C000204636F06BFA0028E5D0BDF80E30190429
:1029D000A160BDF81230BDF814000344E26A126829
:1029E000D5B2012D03D92B44013B6A4213400B445D
:1029F000A36062689342CED10028CCD06FF01C0552
:102A0000D3E0E3881B04039303A9204636F0BAF908
:102A1000A38932460399204636F0EDF9051EC0F22F
:102A2000C480002D00F0A78063683B44039302E05C
:102A3000039B3B44039303998AB2A389DB1B9A420D
:102A400019D201AA204636F08CF90546002840F03C
:102A5000A58001A9204636F021FA0028E8D0BDF86B
:102A600004204FF6FF739A42E2D1BDF80830002BE4
:102A7000DED1012300E00023EBB95B4B1B6803F0C0
:102A80000703022B4ED86168204636F0DCF9054674
:102A9000002840F08A80E3881B046360A289A2EBCF
:102AA0004702134463601B0C1B04A360204636F0EE
:102AB0007AFB054672E04C4B1B6803F00703022BC0
:102AC0000CD8E3881B04039303A9204636F05AF977
:102AD0000399204636F0B7F905465FE0434B119362
:102AE00002238DF8003000238DF801308DF802307C
:102AF0008DF80330009A1092194663F3000163F3D6
:102B0000410163F3820163F3C501032262F388117B
:102B1000082262F3532163F31F5110AA324801F0D7
:102B2000A1FACEE7324B0B9302238DF8003000233D
:102B30008DF801308DF802308DF80330009A0A923A
:102B4000194663F3000163F3410163F3820163F308
:102B5000C501032262F38811082262F3532163F353
:102B60001F510AAA204801F07DFA8CE7A368E26AA7
:102B700012681344A3606368A1688B4208D95B1A8A
:102B80003246204636F037F9051E07DB002DEDD121
:102B9000616801EB4702A3899A420DD02DB9A28842
:102BA000A389A3EB47039A4215D0484624F0B2FA12
:102BB000284613B0BDE8F083A2680B0C1B049A42B0
:102BC000ECD0204636F03FF905460028EDD1E388E9
:102BD0001B04A360E2E7204636F0CDFA0546E4E7A1
:102BE0006FF02C05E1E700BFE8120020905A0508BD
:102BF000A85A05082DE9F041A2B000AF04461430F0
:102C000045F04BF8A06A8368DB689847E0620028CB
:102C100052D0A06A8368DB6898470368013B1F2B8A
:102C200075D8A06A21683A1D3EF040F8002840F0AF
:102C30009780A389002B00F0BC80BA68B3FBF2F147
:102C400002FB1133002B40F0B480E389012B40F2EA
:102C5000D9802046FFF73CFE0546002840F0CD8194
:102C600001232374A54B1B6803F00703022B40F2DA
:102C70001781B4F80EE0B4F80CC06E4688B06B460D
:102C800013F1100200F0E78010217AB10846042900
:102C900003DDDFF86C82C3F81480082801DDC3F877
:102CA00018E00C2840F3DA80C3F81CC00F2940F369
:102CB0001E814FF0100CD3E0904B1B6813F0070FF0
:102CC00002D16FF0150598E18E4BC7F884300223CE
:102CD0003B7000237B70BB70FB703A68C7F88020A4
:102CE000194663F3000163F3410163F3820163F367
:102CF000C501012262F38811082262F3532163F3B4
:102D00001F5107F180027D4801F0ACF9D9E77B4BF8
:102D10001B6813F0070F02D16FF015056DE17A4BB8
:102D2000FB6602233B7000237B70BB70FB703A682C
:102D3000BA66194663F3000163F3410163F382014C
:102D400063F3C501012262F38811082262F3532163
:102D500063F31F5107F16802684801F083F9DBE76C
:102D6000664B1B6813F0070F02D16FF0150544E1A5
:102D7000664B7B6502233B7000237B70BB70FB704E
:102D80003A683A65194663F3000163F3410163F35E
:102D9000820163F3C501012262F38811082262F304
:102DA000532163F31F5107F15002544801F05AF9BF
:102DB000DBE7524B1B6813F0070F02D16FF01505CC
:102DC0001BE1534BFB6302233B7000237B70BB7002
:102DD000FB703A68BA63194663F3000163F341017B
:102DE00063F3820163F3C501012262F388110822B3
:102DF00062F3532163F31F5107F138023F4801F09A
:102E000031F9DBE73D4B1B6813F0070F02D16FF080
:102E10001505F2E03F4B7B6202233B7000237B7081
:102E2000BB70FB703A683A62194663F3000163F3C2
:102E3000410163F3820163F3C501012262F388114A
:102E4000082262F3532163F31F5107F120022B483C
:102E500001F008F9DBE76FF0004116E76FF01B0C9B
:102E60003AB10421397000217970B970F97038686D
:102E7000186100216FF300016FF341016FF38201CC
:102E80006FF3C501032363F38811CCF30A0363F3E3
:102E900053216FF31F510023184801F0E3F8B546A2
:102EA000164B1B6803F00703022B59D963684FEADE
:102EB000134E99B26E4688B06B4613F1100219D0CA
:102EC00010207AB18446042803DDDFF84C80C3F873
:102ED0001480BCF1080F01DDC3F818E0BCF10C0F41
:102EE0001CDDD9610F2860DD4FF0100C18E06FF089
:102EF0001B0CB5E76FF00040E3E700BFE8120020CD
:102F0000785B0508E45A0508085B0508285B050896
:102F1000405B0508545B0508905B05086FF01B0CCF
:102F20003AB10421397000217970B970F9703868AC
:102F3000186100216FF300016FF341016FF382010B
:102F40006FF3C501032363F38811CCF30A0363F322
:102F500053216FF31F5100232C4801F083F8B5462D
:102F60002A4B1B6803F00703022B46D9A1684FEADE
:102F7000114C89B26C4688B06B4613F1100217D021
:102F800010206AB10646042803DDDFF884E0C3F8A8
:102F900014E0082E01DDC3F818C00C2E0BDDD9613A
:102FA0000F282FDD4FF0100C07E06FF01B0CB7E778
:102FB0006FF00040E5E76FF01B0C3AB10421397067
:102FC00000217970B970F9703868186100216FF3C9
:102FD00000016FF341016FF382016FF3C501032319
:102FE00063F38811CCF30A0363F353216FF31F518A
:102FF0000023064801F036F8A54628468837BD4626
:10300000BDE8F0816FF01B0CD7E700BFE81200208D
:10301000A45B05082DE9F04F8DB0019290F810B037
:10302000BBF1000F26D004460E469946C36A1B68C2
:10303000D9B201294AD901F1070A4A420AEA020A29
:10304000012946D9DBB209EB030808F1FF385B42DE
:1030500008EA0308A389A3EB8A034B45C0F0AE80BE
:10306000B9F1000F03D0019B002B00F0AA80636828
:10307000039334E0544B1B6813F0070F02D16FF039
:103080000C0593E0514B0B9302238DF8083000237D
:103090008DF809308DF80A308DF80B30029A0A92BB
:1030A000194663F3000163F3410163F3820163F3A3
:1030B000C501012262F38811082262F3532163F3F0
:1030C0001F510AAA404800F0CDFFD8E74FF0080A88
:1030D000B6E7C846BEE76268039B9A4213D0039FD7
:1030E00004AA03A9204635F055FF054600285DD106
:1030F000BDF81030B342EED104A9204635F0CEFE23
:103100000028E8D001E04FF0000BBBF1000F18D011
:103110003F0C3F04BDF812103944B9F1000F03D140
:10312000BDF8143083B941E0BDF814304B450BD1E4
:103130004B46019A204635F032FE002804DC054655
:1031400034E0B9F1000F31D0B8F1000F1DD01AFAF8
:1031500088F7BFB204F114084FF0FF324FF0FF338D
:10316000404623F0C1FEE3899D421AD06268A368FD
:103170003B449A420BD2204636F0D4F8D0B92046D0
:1031800036F011F8C0B90135EDE70027E2E74B460C
:10319000019A3146204636F0A6F8054618B94D4644
:1031A00001E06FF01B05404623F0B4FF28460DB048
:1031B000BDE8F08F0546F6E70546F4E76FF0150524
:1031C000F4E76FF01505F1E7E8120020D05A050882
:1031D0002DE9F0478AB09946BDF84880037CA3B139
:1031E00004460F469246C36A1B68DAB2012A38D9F0
:1031F000134607325B421A40A389A3EB42034B45B7
:1032000070D366680396002531E03B4B1B6813F0D2
:10321000070F02D16FF00C0359E0384B09930223DA
:103220008DF8003000238DF801308DF802308DF8D4
:103230000330009A0892194663F3000163F34101D9
:1032400063F3820163F3C501012262F3881108224E
:1032500062F3532163F31F5108AA274800F002FFCD
:10326000D8E70822C8E76268039B9A4216D0454512
:1032700014D8039E01AA03A9204635F08BFE03460D
:1032800028BBBDF80430BB42EDD101A9204635F082
:1032900005FE0028E7D00135ADB2E4E76268039B84
:1032A0009A4218D0BDF80830FBB1454520D3360C02
:1032B0003604BDF806104B4528BF4B4652463144F4
:1032C000204635F03FFD034608B9BDF808301846E2
:1032D0000AB0BDE8F087BDF80430BB42E2D06FF021
:1032E0000103F4E76FF01503F1E76FF00103EEE778
:1032F0006FF00103EBE700BFE8120020D05A050889
:1033000010B143685879704710B5064C40F233133A
:1033100022460549054835F073FB40F2331120463B
:1033200035F067FBC05B0508F85B0508AC50050885
:1033300010B520B10268D26802B1904710BD054CAB
:103340008B2322460449054835F05AFB8B21204641
:1033500035F04FFBC05B0508F85B0508AC5005086D
:1033600010B520B10268126962B1904710BD064CD9
:103370009E2322460549064835F042FB9E21204601
:1033800035F037FB0020F1E7C05B0508F85B050866
:10339000AC50050810B518B102689268904710BD8E
:1033A000054CD02322460549054835F029FBD0219C
:1033B000204635F01EFB00BFC05B0508F85B050822
:1033C000AC50050810B520B10268526802B19047B0
:1033D00010BD054CC22322460449054835F010FBB8
:1033E000C221204635F005FBC05B0508F85B0508E7
:1033F000AC50050810B520B171B102681268904751
:1034000010BD0B4CB22322460A490B4835F0F8FA9E
:10341000B221204635F0EDFA054CB3232246074988
:10342000054835F0EDFAB321204635F0E2FA00BF49
:10343000C05B0508F85B0508AC500508105C050882
:1034400010B530B10346006884690CB11846A04736
:1034500010BD064C4FF4B17322460549054835F0BE
:10346000CFFA4FF4B171204635F0C3FAC05B0508BE
:10347000F85B0508AC50050870B506460D460F4CC4
:1034800005E02A4631462046FFF7DAFF10340C4BA0
:103490009C4203D80A4B9C42F3D370BD094C40F2C6
:1034A000513322460849094835F0AAFA084835F050
:1034B000A7FA40F25131204635F09BFAE84E050854
:1034C000F84E0508245C0508545C0508AC50050856
:1034D000785C050808B544F0B4FD0022431819D201
:1034E00013440D4AA2FB03CE2EF0030C0CEB9E0CF2
:1034F000A3EB0C03C01A61F100014FF0CC3300FBC9
:1035000003F302FB0133A0FB02021344400840EA2C
:10351000C37008BD0122E3E7CDCCCCCC2DE9F0414E
:1035200007460546EDB195FAA5F6B6FA86F60E4CB5
:1035300004EB06140123B3406FEA030825EA0305F0
:10354000237B002BEED02046FFF70AFF0028E9D1AD
:1035500007EA0807636804221968204600F050FD56
:10356000E0E73846BDE8F081E84E05082DE9F04176
:10357000314B324A9B1A9F2B12D880460F46304B54
:10358000BFF35B8F53E8005F6A1C43E8002100290A
:10359000F8D1BFF35B8F002D4AD1284C002614E0F0
:1035A000284C4FF48D7322462749284835F028FAD5
:1035B0004FF48D71204635F01CFA636804221968B7
:1035C000204600F01DFD013610341B4B9C4211D8E3
:1035D000194B9C421ED2237B002BF5D02046FFF7CF
:1035E000A7FE2046FFF7BCFE0028E6D00123B3402B
:1035F0001D43E8E7134C40F22713224614491348B1
:1036000035F0FEF9134835F0FBF940F2271120465A
:1036100035F0EFF9B8F1000F0BD055B12846FFF7A0
:103620007DFF0546002FF8D00A2035F0CEFEF4E7E6
:1036300000252846BDE8F081F84E0508E84E05084B
:103640000C790020245C0508985C0508AC5005083E
:10365000545C0508785C050808B5064B186018B17D
:10366000054B1B68092B00DC08BD044823F0FEFE57
:10367000FAE700BF007900200879002064140020D8
:1036800008B5024823F0F2FE08BD00BF6414002014
:103690000B7813F0040F17D110B54A680B88C3F3E9
:1036A00082140978C1F3C20113F4E07F0ED07AB11D
:1036B000084BD21A012342F38F0200F0F1FB84423F
:1036C0008CBF0020012010BD012070470120FAE7C7
:1036D0000120F8E7D812002038B50546144C00E068
:1036E0001034144B9C4212D8124B9C421FD22046DD
:1036F000FFF706FE0028F3D029462046FFF7C8FF53
:103700000028EDD029462046FFF774FEE8E70A4C72
:103710004FF4E37322460949094835F071F9094825
:1037200035F06EF94FF4E371204635F062F938BD9B
:10373000E84E0508F84E0508245C0508545C0508A9
:10374000AC500508785C050830B589B000220F49F7
:103750000F4844F0E6FC0F4D00220023CDE906237C
:10376000002404940E2303930294019400940A4BC2
:103770004FF400620949284623F0E6FA0849284632
:1037800023F0D4F8204609B030BD00BF81360008D0
:1037900080200020C01B0020C93B000840090120F8
:1037A000BC5C050848B108B5054A1060054B1960B6
:1037B000084600F0DFFF002008BD6FF015007047DD
:1037C00024090020FC78002008B5054B1B781BB1AC
:1037D000034B01221A7008BD024823F047FEF7E7A9
:1037E00000090120641400200D4BBFF35B8F53E8E8
:1037F000001F013143E80012002AF8D1BFF35B8FAC
:1038000000B97047074BBFF35B8F53E8001F0139C6
:1038100043E80012002AF8D1BFF35B8FF1E700BF45
:103820000479002008790020064B00200146BFF3F0
:103830005B8F53E8000F43E80012002AF9D1BFF371
:103840005B8F70470479002038B5FFF7EDFF054620
:10385000114C00E01034114B9C420CD80F4B9C4291
:1038600019D22046FFF74CFD0028F3D02946204608
:10387000FFF7A8FDEEE70A4C4FF4E9732246094929
:10388000094835F0BDF8094835F0BAF84FF4E97148
:10389000204635F0AEF838BDE84E0508F84E05086C
:1038A000245C0508545C0508AC500508785C0508E4
:1038B000034B18680028D4BF00200120704700BFC8
:1038C0000479002010B5044C04492046FEF7DCFCC6
:1038D000034B1C6010BD00BF90120020245D050842
:1038E000F878002008B50023074A1370074A1360D0
:1038F000074A13604FF47A710648FFF753FFFFF74A
:10390000E1FF00F0ABFA08BD0109012004790020B5
:1039100008790020D534000808B50146014835F083
:1039200064FD08BD9012002008B50248FEF750FE65
:1039300008BD00BF9012002008B50146024B186870
:1039400035F059FD08BD00BFF878002008B50248E1
:1039500035F055FD08BD00BF9012002010B582B0B3
:1039600000220023CDE900232C4B187808B902B0BF
:1039700010BD684635F05BFD044688B1284BBFF3A7
:103980005B8F53E8001F013943E80012002AF8D189
:10399000BFF35B8F2046FFF79FFE2046FFF7CCFF6B
:1039A000FFF786FF58B91F4A1368516813F57A73F9
:1039B00041F1000113605160FFF7C8FFD7E744F001
:1039C00040FB0022431827D21344174AA2FB034CA2
:1039D0002CF0030404EB9C041B1BC01A61F10001D2
:1039E0004FF0CC3300FB03F302FB0133A0FB0202D8
:1039F0001344400840EAC3705B080A490A684968F2
:103A0000801A63EB010340F2E932904273F1000344
:103A1000C9D3FFF719FFC6E70122D5E70009012046
:103A20000879002078200020CDCCCCCC194B1B7815
:103A300003B1704710B500210120FFF797FD164C28
:103A400000E01034154B9C420BD8144B9C4218D20A
:103A50002046FFF755FC0028F3D02046FFF79AFCDC
:103A6000EFE70F4C40F2891322460E490E4834F01E
:103A7000C7FF0E4834F0C4FF40F28911204634F0ED
:103A8000B8FFFFF76BFF0028FBD1024B01221A7031
:103A900010BD00BF01090120E84E0508F84E0508D9
:103AA000245C0508545C0508AC500508785C0508E2
:103AB00030B583B0304BBFF35B8F53E8002F511C00
:103AC00043E800100028F8D1BFF35B8F2B4B1B7825
:103AD0006BB92B4B1B6823B3002A42D0092A20D193
:103AE000284844F02AFB284823F0C0FC19E04FF096
:103AF0001003EFF3118483F31288BFF36F8F234811
:103B000022F074FF78B1214D284622F08FFFFFF795
:103B100025FF284622F07AFFA0B184F31188BFF375
:103B20006F8F03B030BD1A4C7223224619491A48D0
:103B300034F066FF1549194834F062FF72212046BF
:103B400034F057FF124CF02322461549124834F046
:103B500057FF2946134834F053FFF021204634F034
:103B600048FF00220023CDE9002342F21072002317
:103B7000044826F081F9D4E70879002001090120E2
:103B8000007900208020002064140020F4780020B8
:103B9000D4590508045A0508AC5005081C5A0508F4
:103BA000345A05084C5A050810B50446044B1B68E6
:103BB0009847A0602146034835F03DFC10BD00BF8A
:103BC00024090020901200202DE9F041234B244AC3
:103BD0009B1A1B0910D000210846FFF7C7FC80463E
:103BE000B8B14FF4FA76002750F0D2FD1D4B1858AB
:103BF000FFF732FD002525E01B4C40F25D332246E5
:103C00001A491B4834F0FCFE40F25D31204634F086
:103C1000F0FE4FF0FF364FF0FF37E5E74046FFF785
:103C20007DFC804688B94FF0FF364FF0FF370CE03F
:103C300000210846FFF720FC32463B460D4823F0A2
:103C40005DFC2546B8F1000FE8D1FFF787FE04467A
:103C50000028F6D1002DEBD12C46EDE7F84E0508F3
:103C6000E84E050808000000245C0508C45C05084F
:103C7000AC5005086414002010B538B10A4601465E
:103C80008AB10F4835F02DF8002010BD0D4C40F2E0
:103C9000373322460C490D4834F0B2FE40F237313A
:103CA000204634F0A6FE074C4FF44E7322460849D6
:103CB000064834F0A5FE4FF44E71204634F099FECC
:103CC00090120020245C0508E05C0508AC50050853
:103CD000F85C050810B520B10146084835F00CF82D
:103CE00010BD074C40F2453322460649064834F0E1
:103CF00087FE40F24531204634F07BFE90120020D2
:103D0000245C0508105D0508AC500508014800EB6F
:103D100081007047D812002010B1436818797047AD
:103D200010B5054CED2322460449054834F068FEE1
:103D3000ED21204634F05DFEC05B0508F85B050808
:103D4000AC50050810B143681971704710B5054CA7
:103D5000DF2322460449054834F052FEDF21204685
:103D600034F047FEC05B0508F85B0508AC50050859
:103D700028B142681160436801225A71704710B53A
:103D8000064C4FF48C7322460549064834F038FE41
:103D90004FF48C71204634F02CFE00BFC05B050848
:103DA000F85B0508AC50050810B1436858797047B6
:103DB00010B5064C40F2331322460549054834F04D
:103DC0001FFE40F23311204634F013FEC05B05089D
:103DD000F85B0508AC50050818B1436800225A7119
:103DE000704710B5064C40F2251322460549064897
:103DF00034F006FE40F22511204634F0FAFD00BFF3
:103E0000C05B0508F85B0508AC5005080248034B89
:103E1000C01AC008704700BFE84E0508904D05085D
:103E200010B50C46FFF7F2FFA04203D9024B53F83E
:103E3000340010BD0020FCE7904D050810B50C467D
:103E4000FFF7E4FFA04204D9034B03EBC403187946
:103E500010BD0020FCE700BF904D050810B5002400
:103E600010E021460020FFF7E9FF0A4A52F824300B
:103E700023F0070342F8243000F00700034342F820
:103E800024300134044B054A9B1AB4EBD30FE8D31A
:103E900010BD00BFD8120020E84E0508904D05085F
:103EA000F8B507460D4614461E460846FFF7AEFF16
:103EB000844211D2EEB1002C20DB2146E8B2FFF79C
:103EC00025FF04683846FFF727FF00EB400024FA7F
:103ED00000F000F0070010E0094C4FF40873224690
:103EE0000849094834F08CFD4FF40871204634F03D
:103EF00080FD2146E8B2FFF7A1FFF8BD0420FCE7F2
:103F00003C5D0508885D0508AC5005082DE9F041C9
:103F100004460E46174698460846FFF777FF874245
:103F200024D2002C40D000233A4631462046FFF7E9
:103F3000B7FF38B100233A4631462046FFF7B0FFBD
:103F400040454CD800233A4631462046FFF7A8FFAB
:103F5000054600283BD12046FFF7DEFE2B463A46B9
:103F6000F1B235F082FA2846BDE8F0811D4C40F2EE
:103F7000A71322461C491D4834F042FD40F2A71108
:103F8000204634F036FD43463A463146204635F069
:103F9000A6FA854238BF054610341548844206D833
:103FA00013488442EFD3DEE7124C0025F5E70D4CB1
:103FB00040F2AD13224610490C4834F021FD0F4861
:103FC00034F01EFD40F2AD11204634F012FD002306
:103FD0003A4631462046FFF763FF0546BBE74546B4
:103FE000B9E700BF3C5D0508885D0508AC500508D1
:103FF000F84E0508E84E0508B05D0508785C050830
:1040000070B504460E461546094BC31A1B11013301
:10401000D9B2FFF797FE63689D712946204635F0B7
:1040200062FA31462046FFF7A3FEFFF7CDFB70BDD5
:10403000E84E050800B589B0059206930023079362
:1040400062B1074A0C9B02930B9B01930A9B00935E
:1040500005ABFDF70FFA09B05DF804FB0022F1E7AC
:10406000299503082DE9F04F8BB004AF05461E4695
:104070008846C1F34A24002C00F09B809146002220
:10408000FA603A617A6104230293FB1801930A23D0
:10409000009307F10C0321464846FDF7EBF9B0F514
:1040A000006F5ED34C4B1B6813F0060F00F090803E
:1040B000D9F804106D4600233B7302237B738AB04A
:1040C00004AC14F1100221D012201AB1042801DD31
:1040D000424B636100233B7002237B70CAB10346ED
:1040E000082800DDA1610C2B02DD40F2FF73E361C3
:1040F00004F12003002101290BD801F118063E44E8
:1041000016F8186C03F8016B0131F4E76FF000400A
:10411000DBE7112822DD122342B10421397300218B
:104120007973B9730121F973F868206100216FF385
:1041300000016FF341016FF382016FF3C5010220AB
:1041400060F38811C3F30A0363F353210023C1F31F
:104150001301214835F015FAAD4639E06FF01B0325
:10416000DAE760F35328C0F30A0A0AEB1850173055
:1041700020F007008008FFF7CFFB834610B304232D
:104180000293FB1801930A230093534600F1100297
:1041900021464846FFF74EFF002813DA104C5923FA
:1041A00022461049104834F02BFC5921204634F0A7
:1041B00020FC04EB1154173424F00704A008FFF787
:1041C000ABFB8346334642462946584635F0C2F992
:1041D0001C37BD46BDE8F08FF4120020E45D0508F1
:1041E000245E0508505E0508AC5005082DE9F04F27
:1041F00085B080460D4617461E46DDF838A0DDF82E
:104200004090B9F1000F45D0119B039300934B46AA
:104210000F9A10210020FCF78BFE031E2FDB9B461C
:1042200003EB0A00173020F0070000246FF30004AE
:104230006FF341046FF3820468F3C50467F38814D5
:1042400063F353246AF31F548008FFF765FB0746A6
:1042500060B11030B9F1000F08D0119B00934B46AC
:104260000F9A5946FCF764FE002815DB33462246B8
:104270002946384635F06EF905B0BDE8F08F0C4C94
:10428000782322460B490C4834F0BAFB78212046AB
:1042900034F0AFFB0023C2E7054C922322460549C8
:1042A000054834F0ADFB9221204634F0A2FB00BF5C
:1042B000245E05085C5E0508AC5005080EB400B528
:1042C00082B0014603AB53F8042B0193034805F079
:1042D00063FE02B05DF804EB03B070479945000837
:1042E00030B585B011F0440F05D01A4B1C6834B9B5
:1042F000002005B030BD1849FFF7E0FFF9E7174B84
:104300001968B2FBF1F1B1FBF4FC154AA2FB0C32C7
:10431000D20A4FF4616E0EFB12CE124BA3FB0E536A
:104320005B0904FB1C114FF47A7C0CFB01F1B1FB1F
:10433000F4F504FB15110CFB01F1B1FBF4F1029152
:104340000195C3EB0311AEEB810100910649FFF724
:10435000B5FFCEE714790020685E050810790020CB
:10436000C5B3A29189888888745E050861B108B5D3
:104370002AB1064A52F8232012B9054A00E0044A3D
:104380000449FFF79BFF08BD704700BF7C5F05082D
:10439000905E0508248F05082DE9F0410546174673
:1043A000069EDDF81C8081B900242EB132461149E9
:1043B0002846FFF783FF0444B8F1000F14D06FB113
:1043C000099B042B13D00C4909E00C4B099A53F8B4
:1043D00022200B49FFF772FF0446E6E706494246F2
:1043E0002846FFF76BFF04442046BDE8F0810549ED
:1043F000F5E700BFAC5E05089C5E0508905F050808
:10440000A45E0508985E05082DE9F04F87B0059376
:104410009DF84C70042F2AD805460C46164601F02C
:10442000020B01F0010AC1F3C00935F00AF8024697
:1044300050B31A492846FFF741FF8046BBF1000FF1
:1044400025D13A465146284635F0ACF80397129BE1
:104450000293119B0193109B00930023324649461F
:104460002846FFF799FF404407B0BDE8F08F0C4C99
:1044700040F2BF1322460B490B4834F0C1FA40F218
:10448000BF11204634F0B5FA4FF00008D6E7059A80
:1044900021462846FFF724FF8044D2E7EC5E05085A
:1044A000B05E0508E05E0508AC50050811F0100F7D
:1044B0000BD108B511F0200F03D00449FFF7FEFE21
:1044C00008BD0349FFF7FAFEFAE770472C8A050892
:1044D000F05E05082DE9F04105460F461646984660
:1044E0000699FFF7E3FF0024444505DA24492846EE
:1044F000FFF7E4FE0134F7E7002409E020492846ED
:10450000FFF7DCFE0BE01F492846FFF7D7FE01341A
:104510000F2C0CDC002C02DD14F0070FEED0B4429F
:10452000F1D23A5D18492846FFF7C8FEEFE7174970
:104530002846FFF7C3FE002409E011492846FFF78B
:10454000BDFE0BE012492846FFF7B8FE01340F2CE0
:1045500013DC002C02DD14F0070FEED0B44207D2BA
:104560003A5D0C4B9B5C13F0970FEBD12E22E9E7E1
:1045700003492846FFF7A2FEE8E7BDE8F08100BF47
:10458000B03B0608FC5E0508F45E0508282C06080A
:10459000BC3A06087A4B060838B505460C464B6807
:1045A0001A68CB689A4214D06368BFF35B8F53E8F4
:1045B000002F511C43E800100028F8D1BFF35B8F97
:1045C000A3689D5463681A68E3689A4205D800207E
:1045D00038BD084635F019F8E6E7054C7A2322463F
:1045E0000449054834F00CFA7A21204634F001FAE7
:1045F000B05E0508005F0508AC5005082DE9F041E4
:1046000084B004469DF82C500C9F0E9EA5B9012B3A
:1046100020D020484FF0000837B13B4622461E49C3
:1046200034F004F8002819DB2EBB6DBB204634F0B3
:10463000ECFF04B0BDE8F08103950A980290019365
:1046400000920B4600220F992046FFF7DDFE8046C0
:104650001248E1E711484FF00008DDE7104C40F246
:10466000192322460F49104834F0CAF940F21921A3
:10467000204634F0BEF90F9B0093434632460D9915
:10468000204634F0A7FFD0E72A460F99204634F0A1
:1046900095FFCBE725960308999F000899450008E8
:1046A000B05E0508305F0508AC5005082DE9F04301
:1046B00087B006460C469046D1F808900F88C7F39D
:1046C00082170878C0F3C2004B6833B11249591AF7
:1046D00041F38F0100291ADA0023214651F8105BBB
:1046E000C5F34A256288C2F30B12481905B90021A7
:1046F000CDF8148004920390029101970022009259
:1047000049463046FFF77AFF07B0BDE8F083FFF770
:1047100087FB0346E1E700BFD812002070B582B0E6
:104720000446056842F20F738B4228BF0B460E4ABF
:104730000521684633F08CFB064663685B680422FB
:104740000A49284634F021FF63685B6832466946AF
:10475000284634F01AFF63685B681722044928462C
:1047600034F013FF02B070BD04760508545F0508ED
:104770003C5F0508074B01221A6004E04008054A27
:1047800013685B001360044B9842F7D8034B186022
:10479000704700BF1079002040420F0014790020BC
:1047A0000023CB604B60054B8B60042804D8044B7E
:1047B00053F820300B6070470023FBE7844F050857
:1047C000406505080023CB604B60074A8A600B6098
:1047D000064B074A9B1AB0EB131F03D202EB0013E0
:1047E0009B680B60704700BFC4640508F84E05085D
:1047F000E84E050810B50C460023CB604B60044A18
:104800008A6001461846FFF70BFB206010BD00BF11
:10481000844F050810B143685879704710B5064CAD
:1048200040F2331322460549054834F0E9F840F2D6
:104830003311204634F0DDF8C05B0508F85B05084D
:10484000AC50050818B1436800225A71704710B582
:10485000064C40F2251322460549064834F0D0F8AC
:1048600040F22511204634F0C4F800BFC05B0508B3
:10487000F85B0508AC50050828B142681160436830
:1048800001225A71704710B5064C4FF48C732246C2
:104890000549064834F0B4F84FF48C71204634F0E2
:1048A000A8F800BFC05B0508F85B0508AC50050818
:1048B00008B5C3699B681B790BB1012008BD034A89
:1048C000012135F063FC0020F8E700BFA45F050874
:1048D00030B583B00546164C09E0164912790192AD
:1048E0000091154A0821284635F050FC1034134B2E
:1048F0009C4209D8114B9C4216D2A3686268517938
:104900000029EAD00E49E9E70E4C4FF4AC73224679
:104910000D490E4834F074F80D4834F071F84FF436
:10492000AC71204634F065F8002003B030BD00BF04
:10493000E84E0508D05F0508DC5F0508F84E05085D
:10494000C85F050800600508545C0508AC50050800
:10495000785C05082DE9F04383B080460F460020BF
:10496000FFF754FA81463846FFF754FF60B11D4BFC
:104970001D4A0821404635F009FC1C4A08214046E2
:1049800035F004FC002426E0194A0321404635F0A6
:10499000FDFBECE70123224600213846FFF780FAB1
:1049A00005460023224619463846FFF779FA06469F
:1049B00021460020FFF734FA03460E4A52F825102C
:1049C00052F82620019200910B4A0821404635F00A
:1049D000DDFB013424B24C45DCD3002003B0BDE83C
:1049E000F08300BF4460050850600508706005084A
:1049F0003060050854650508B060050870B50646C6
:104A0000FBF7F2FD0546104C104B9C420AD80F4BA9
:104A10009C4215D22A46A16830464FF00AFE80B16A
:104A20001034F1E70A4C2F2322460A490A4833F092
:104A3000E7FF0A4833F0E4FF2F21204633F0D9FF87
:104A40000024204670BD00BFE84E0508F84E05085A
:104A500000600508545C0508AC500508785C050842
:104A60002DE9F0410546884614461E4652F8047C5E
:104A70003846FFF7C3FF38B1014623464246284671
:104A8000B0470020BDE8F0813B46044A012128469A
:104A900035F07CFB6FF00700F4E700BFC460050849
:104AA00008B5024BFFF7DCFF002008BD55490008A0
:104AB00008B5024BFFF7D4FF08BD00BF43960308BB
:104AC00008B5024BFFF7CCFF08BD00BF4F960308A7
:104AD00008B5024BFFF7C4FF08BD00BFCD4B00086F
:104AE00008B5024BFFF7BCFF08BD00BF1B970308CA
:104AF00038B505460024042C09D80422064B53F887
:104B0000241028464FF095FD18B10134F3E74FF01B
:104B1000FF34204638BD00BF546505082DE9F04F2D
:104B200083B081468A461E46DDF83080154632B194
:104B30001746DAF804305B7933B100241DE0002019
:104B4000FFF764F90746F4E71C4A0321484635F0AD
:104B50001DFBF2E756F8240034F0B4FD12E02146C4
:104B60000020FFF75DF903461BE056F82430144A95
:104B70000121484635F00AFB0134BC421BDA002D06
:104B8000E8D120460028F0DB02B24346002150461F
:104B9000FFF7BCF983468045EED0002DDFD056F8F4
:104BA0002430084A52F82B200092074A0321484635
:104BB00035F0ECFAE0E703B0BDE8F08FDC60050803
:104BC0000C61050854650508F46005082DE9F041FD
:104BD00082B005460E4617461C46D3F80480404670
:104BE000FFF786FF00280BDB009004F10803BA1ED4
:104BF00031462846FFF792FF002002B0BDE8F08161
:104C00004346044A0121284635F0C0FA6FF00700F8
:104C1000F3E700BF2861050810B584B0044602A977
:104C200003A8FFF729F800281EDB174A08212046B1
:104C300035F0ACFA039B154A0821204635F0A6FA58
:104C4000029B134A0821204635F0A0FA01A8FFF77D
:104C500041F8002810DB019B0E4A0821204635F060
:104C600095FA002004B010BD0B4A0121204635F012
:104C70008DFA6FF00700F5E7084A0821204635F065
:104C800085FA0020EEE700BF746105089C61050805
:104C9000B46105080C62050840610508D461050887
:104CA000014B0360002070476865050884460023B7
:104CB00000E00133074A12689A4208DD1A010649EA
:104CC000096801EB03108A5C6245F2D100E0002024
:104CD000704700BF686505082809002038B50C4BEF
:104CE0001B687BB10C46FFF7E1FF054668B1C06861
:104CF00028B142F022FF10B12560002038BD6FF0CE
:104D00001200FBE76FF00C00F8E76FF00100F5E729
:104D10002809002000B58BB003AB0093024B34F0A0
:104D200054FD0BB05DF804FB8F9703082DE9F843A1
:104D30000F4B1D68CDB180460F4614460D4E4FF007
:104D4000FF324FF0FF33304622F0CEF86B68D3F8D5
:104D5000089023463A4641462846C847044630460E
:104D600022F0D8F92046BDE8F8836FF00104F9E796
:104D7000187900205014002000230360054B5B6865
:104D80001BB11860034B58607047024B58601860A5
:104D9000704700BF1C790020014B1860704700BFAE
:104DA0001879002010B584B00190029103924FF061
:104DB000FF324FF0FF330C4822F096F80B4B1C6883
:104DC00064B163681B6801A920469847234624689C
:104DD000002CF5D0002BF3D11C46F1E7024822F05D
:104DE00099F9002004B010BD501400201C79002057
:104DF000024B00221A605A60704700BF1C790020E5
:104E000008B5034B00221A605A60FFF7F1FF08BD96
:104E100024790020F0B583B006460F4609B100237F
:104E20000B602F4C002504E00FB1019B3B60254631
:104E300014342C4B9C4219D82A4B9C4224D201AAF0
:104E40002168304634F0FEFC0028F1D0002DEBD074
:104E500000222968206834F0F5FC0028E8D01FB152
:104E6000019B3B602546E3E72546E1E71E4C942382
:104E700022461E491E4833F0C3FD1E4833F0C0FDD4
:104E80009421204633F0B5FD1B4B1C683CB1143C0B
:104E900005E014F1140317D0646904B1143CE4B1C3
:104EA00001AA2168304634F0CDFC0028F1D06DB164
:104EB00000222968206834F0C5FC0028ECD057B1E6
:104EC000019B3B602546E7E71C46E8E70FB1019BE5
:104ED0003B602546E0E72546DEE7284603B0F0BD07
:104EE000F84E0508F84E0508CC650508006605086B
:104EF000AC500508785C0508247900202DE9F047BE
:104F000086B002AF04460E46904699463D6BF86067
:104F1000B5B1296821B107F10C0234F093FC58B106
:104F2000D5F804A0BAF1000F0AD0AB68F868009376
:104F30004B4642463146D0471037BD46BDE8F08764
:104F400007F10C012046FFF765FF002866D0856851
:104F50004B4642463146F868A8470028ECD0314B12
:104F60001B6813F0070F5BD06D4600233B720223D2
:104F70007B728AB002AE16F1100218D04FF0120CFC
:104F800022B1BCF1040F01DD274B736100233B719B
:104F900002237B71C2B16346BCF1080F00DDB4612E
:104FA0000C2B00DDF06106F1200300210AE06FF018
:104FB000004CE5E701F11000384410F80C0C03F840
:104FC000010B01310129F5D9BCF1110F23DD1223A9
:104FD00042B10421397200217972B9720121F9724A
:104FE000B868306100216FF300016FF341016FF386
:104FF00082016FF3C501012060F38811C3F30A0336
:1050000063F353216FF31F5100230648FFF72AF87B
:10501000AD46002090E76FF01B03D9E700208BE737
:10502000002089E76C1300202866050810B54FF0B2
:10503000FF324FF0FF330B4821F056FF0A4B1B782D
:105040002BB10024074822F065F8204610BDFFF779
:10505000D7FE00F07DF804460028F3D1024B012270
:105060001A70EFE750140020020901202DE9F047E3
:1050700098B080468946048F0134A4B24FF0000AEC
:105080000EE000280BDDB8F83830AB423ED02946A0
:10509000384634F07AF92146384634F076F92C4611
:1050A000651EADB2B5F5004F2CD008F108074A23B4
:1050B00003AA2946384634F06EF9064604F57F54B3
:1050C0003F34A4B201230DF10B022146384634F0DF
:1050D00062F9002ED5DD0028D5DD06F160030DEB69
:1050E0000306002306F8543C1697ADF85C40CDF853
:1050F000009016AB0B4A014603A8FFF7FFFE82465D
:105100000028CCD0504618B0BDE8F087013B42469D
:1051100022F8383F02234FF400413846FDF77AFF6A
:10512000B5E700BFD598030808B5034B4360FFF708
:1051300023FE002008BD00BF2C09002008B5034B4A
:105140004360FFF729FE002008BD00BF2C090020A6
:1051500010B584B00123009303A90420FFF7BEFD1E
:10516000034610B1184604B010BD01AA69460420D8
:10517000FFF7D0FD034610B110F10C0FF2D1029CE5
:10518000B4F5803F23D200221346072B07D82244D0
:1051900003998968914202D301339BB2F5E70D4828
:1051A0008482C382039B5A688260DB68C36334F0E5
:1051B0003DFC03460028D5D10648FFF7B5FF03465E
:1051C0000028CFD10348FFF7B9FF0346CAE76FF0C5
:1051D0002003C7E72C79002000B583B05368009303
:1051E0001368044A012134F0D1FF6FF0150003B0B9
:1051F0005DF804FB5C66050810B582B0049C63682A
:1052000043B10090074A0821206834F0BFFF002016
:1052100002B010BD0346044A0821206834F0B6FFEE
:10522000F5E700BF78660508B4A1050838B504465F
:10523000506834F001FB054608B9284638BD0346DE
:10524000024A0121204634F0A1FFF6E780660508F6
:1052500038B505460C460849FBF7B4F910B90123E7
:10526000237038BD05492846FBF7ACF908B9207012
:10527000F7E76FF01500F4E7A0660508A8660508D3
:105280002DE9F041A2B006460C46154600238DF8E4
:10529000073003290CD89DF80730C3B1012B27D064
:1052A000264A0121304634F071FF6FF0150739E0CE
:1052B0000DF107015068FFF7CBFF07460028EAD041
:1052C0006B681F4A0121304634F060FF2AE004F188
:1052D0008043013B55F823703846FBF785F90146BA
:1052E000802302AA384633F015FA074678B9D7E783
:1052F00004F18043013B55F823804046FBF774F9E5
:10530000471C80233A46414602A84FF059F904F160
:105310008044023C3A4602A955F82400FFF706FDF6
:10532000074618B9384622B0BDE8F0810346054A61
:105330000121304634F02AFFF4E700BFC0660508BB
:10534000AC660508D8660508F0B585B007460C467A
:10535000154600238DF80F30022906D90DF10F01F3
:105360005068FFF775FF0646C0B901979DF80F30EA
:105370008DF8083000238DF8093004F18043013B9B
:1053800001AA114955F82300FFF70CFD064660B944
:105390009DF8093083B1304605B0F0BD6B680B4A0B
:1053A0000121384634F0F2FEF5E70346084A0121B0
:1053B000384634F0EBFEEEE7064A0121384634F079
:1053C000E5FE6FF00106E6E715540008AC66050837
:1053D000F86605081467050830B583B004460090E8
:1053E00002290AD0002001906A460849FFF7DAFC3A
:1053F000054620B9284603B030BD5068F3E70346A0
:10540000034A0121204634F0C1FEF3E7F9510008B8
:10541000286705082DE9F041C0B00C4615461E4628
:10542000469F8846B1F5807F28BF4FF480780021E1
:1054300034F032FA78B901237B714246694630462E
:10544000A847021E0BDB8AB13B79ABB1012B18D008
:10545000B4F5807F26D8002040B0BDE8F081134627
:10546000134A0121386834F091FEF4E7114A032110
:10547000386834F08BFEEEE76946386801F006FFC5
:10548000E6E7501E1DF8003033B96B460A4A082182
:10549000386834F07BFEDBE7084A0121386834F0D5
:1054A00075FED8E7064A0821386834F06FFED2E767
:1054B0004867050864670508B4A10508746705080E
:1054C0008C6705082DE9F04182B006461546002399
:1054D000019301AA0A21A86802F004F9019C9CB971
:1054E0008046C3B2042B17D8686833F0DEFF071E6E
:1054F0001DDB3AB25FFA88F300210846FEF706FD8D
:10550000204602B0BDE8F08123460C4A0121304616
:1055100034F03CFE019CF3E7C3B2094A0121304656
:1055200034F034FE304634F03FFE0124E8E76B6887
:10553000044A0121304634F029FEDAE7B46905084F
:10554000DC690508F469050830B583B005461346E3
:105550000022019201AA0A21586802F0C3F8019CB6
:1055600024B934F088FA204603B030BD2346034AFC
:105570000121284634F00AFE019CF4E7146A05086C
:1055800010B582B0044621F085FCC0F307230193D7
:10559000C0F307430093030E034A0821204634F06A
:1055A000F5FD002002B010BD346A050810B50446B0
:1055B00018F000F80346084A0821204634F0E6FDBA
:1055C000064A0821204634F0E1FD2146044821F036
:1055D00035FA002010BD00BFDC6A0508FC6A05082A
:1055E000E555000870B58EB004460D46D0F89C60B5
:1055F00042F012FB02464FF0CBF8254B1B589C4261
:1056000030D0244B002A2FD001920094224A082146
:10561000284634F0BBFD94F90E10D4E90A23CDE9F5
:1056200002230091237B1D4A0821284634F0AEFD59
:10563000202205A9204621F08BF90346626E0092D4
:10564000174A0821284634F0A1FD0DA9204642F052
:1056500005FB034650B1134A0821284634F096FD55
:105660000EB070BD104BCDE7104ACDE70D9AB11AC0
:10567000642301FB03F3B3FBF6F30393029601915A
:10568000009233460A4A0821284634F07FFDE7E7B6
:1056900008000000B03B06080C6B0508186B0508F5
:1056A000446B05085C6B050860830508086B0508FA
:1056B0008C6B0508F0B589B004460D46D0F89C60A7
:1056C00007A942F0CBFAC8B9204642F0A5FA079ADA
:1056D000B11A642301FB03F3B3FBF6F30746A0B151
:1056E0000593049603910292019600972346084A77
:1056F0000821284634F04AFD09B0F0BD0346054AAA
:105700000821284634F042FDF6E7034FE8E700BFE2
:10571000C46B05085C6B0508086B050870B592B092
:10572000054600240A940B940C940D940E940F9447
:10573000109411944FF020330A930B930C930D9314
:105740000E930F93ADF8403001461D4821F076F9D5
:1057500014B1002012B070BD04EB4413194E06EBD7
:10576000831609AA4FF4006106F1400042F065FA81
:10577000C0B90999C1F50060642200FB02F2D20AA7
:1057800006924FF4006305930490039102930AABD1
:105790000193009433460C4A0821284634F0F6FC65
:1057A0000134D5E7094C40F20B1322460849094859
:1057B00033F026F940F20B11204633F01AF900BFFE
:1057C000B5560008003F0120446C0508086C050828
:1057D000A0590508AC50050810B5044617F044FF61
:1057E0000346034A0821204634F0D0FC002010BDB7
:1057F000906C050810B503460C461146006808B1C8
:10580000027822B9024A204632F022FB204610BD1F
:10581000FC6E050870B586B0054605A820F0D4FAE0
:1058200000EB8000059E06EB8006124A0821284600
:1058300034F0ACFC059C06E00F4B104A08212846CA
:1058400034F0A4FC1434B44211D214226946204628
:10585000FFF7D0FF03460A4A0821284634F096FC99
:10586000204642F06AF90028E6D0064BE5E7002022
:1058700006B070BD186F05080C6F05082C6F050881
:10588000246F0508046F050808B5102A12D0202AD5
:1058900013D0082A06D00A4A082134F077FC6FF0AA
:1058A000150006E00B78DBB2064A082134F06EFCE6
:1058B000002008BD0B889BB2F6E70B68F4E700BF39
:1058C000A46F0508BC6F050808B5029B102A0ED00E
:1058D000202A10D0082A06D0084A082134F056FCA5
:1058E0006FF0150002E0DBB20B70002008BD9BB228
:1058F0000B800020FAE70B600020F7E7A46F050893
:105900008B1E022B3AD82DE9F04182B005460C4699
:10591000164610220021706832F036FB8046022CB9
:105920001FD820273B46174A0821284634F02EFC72
:10593000032C1DD910220021F06832F025FB04460B
:105940000346114A0821284634F020FC0094002325
:1059500001933A4641462846FFF7B6FF02B0BDE83C
:10596000F0810A220021B06832F00EFBC7B2D9E7FD
:105970003A4641462846FFF787FFEFE76FF01500EC
:10598000704700BFD06F0508E86F050838B50446BA
:105990000D4611B10F4B1B785BB90E4A137883F09B
:1059A0000103137063B92946204601F0BFFC0020B3
:1059B00038BD094A012134F0E9FB6FF00F00F7E729
:1059C000064A0821204634F0E1FB024B01221A70FE
:1059D000E9E700BF03090120FC6F050838700508DE
:1059E000F8B507460E4615460023244A1370244A8C
:1059F0001360244A13600CE000231C440222224955
:105A000020464EF016FE98B91C4B01221A70043540
:105A1000013E012E1ED96C6802221C4920464EF020
:105A200008FE0028E8D1A378002BE6D00123E4E7A4
:105A300016492046FAF7C6FD58B123782D2B09D117
:105A400063783BB12346124A0821384634F09EFB66
:105A5000DDE7043500221146686832F025FA0D4B67
:105A6000186000221146686832F01EFA0A4B18606E
:105A70000A493846FFF78AFF0020F8BD05090120D2
:105A8000707900207479002068700508647005083A
:105A90006C7005087C79002078790020A15A0008F4
:105AA00038B50546554B1B78182B01D0002305E06F
:105AB0000B78112B32D0002300E0013302F1FF3CC0
:105AC0009E469C4509D9CC5C182CF6D18E449EF894
